{
  "_format": "hh-sol-artifact-1",
  "contractName": "Bidding",
  "sourceName": "contracts/bidding.sol",
  "abi": [
    {
      "inputs": [
        {
          "internalType": "string",
          "name": "_projectName",
          "type": "string"
        },
        {
          "internalType": "string",
          "name": "_projectDescription",
          "type": "string"
        },
        {
          "internalType": "string",
          "name": "_projectMetrics",
          "type": "string"
        }
      ],
      "stateMutability": "nonpayable",
      "type": "constructor"
    },
    {
      "anonymous": false,
      "inputs": [
        {
          "indexed": false,
          "internalType": "address",
          "name": "bidder",
          "type": "address"
        },
        {
          "indexed": false,
          "internalType": "uint256",
          "name": "bidAmount",
          "type": "uint256"
        }
      ],
      "name": "BidPlaced",
      "type": "event"
    },
    {
      "anonymous": false,
      "inputs": [
        {
          "indexed": false,
          "internalType": "address",
          "name": "bidder",
          "type": "address"
        },
        {
          "indexed": false,
          "internalType": "int256",
          "name": "bidAmount",
          "type": "int256"
        }
      ],
      "name": "BidRevealed",
      "type": "event"
    },
    {
      "anonymous": false,
      "inputs": [],
      "name": "BiddingPaused",
      "type": "event"
    },
    {
      "anonymous": false,
      "inputs": [],
      "name": "BiddingResumed",
      "type": "event"
    },
    {
      "anonymous": false,
      "inputs": [
        {
          "indexed": false,
          "internalType": "address",
          "name": "winner",
          "type": "address"
        },
        {
          "indexed": false,
          "internalType": "int256",
          "name": "winningBid",
          "type": "int256"
        }
      ],
      "name": "WinnerComputed",
      "type": "event"
    },
    {
      "inputs": [],
      "name": "biddingPaused",
      "outputs": [
        {
          "internalType": "bool",
          "name": "",
          "type": "bool"
        }
      ],
      "stateMutability": "view",
      "type": "function"
    },
    {
      "inputs": [
        {
          "internalType": "address",
          "name": "",
          "type": "address"
        }
      ],
      "name": "bids",
      "outputs": [
        {
          "internalType": "int256",
          "name": "",
          "type": "int256"
        }
      ],
      "stateMutability": "view",
      "type": "function"
    },
    {
      "inputs": [],
      "name": "computeWinner",
      "outputs": [],
      "stateMutability": "nonpayable",
      "type": "function"
    },
    {
      "inputs": [
        {
          "internalType": "address",
          "name": "",
          "type": "address"
        }
      ],
      "name": "encryptedBids",
      "outputs": [
        {
          "internalType": "string",
          "name": "",
          "type": "string"
        }
      ],
      "stateMutability": "view",
      "type": "function"
    },
    {
      "inputs": [],
      "name": "getNumBidsPlaced",
      "outputs": [
        {
          "internalType": "uint256",
          "name": "",
          "type": "uint256"
        }
      ],
      "stateMutability": "view",
      "type": "function"
    },
    {
      "inputs": [
        {
          "internalType": "address",
          "name": "bidder",
          "type": "address"
        }
      ],
      "name": "hasPlacedBid",
      "outputs": [
        {
          "internalType": "bool",
          "name": "",
          "type": "bool"
        }
      ],
      "stateMutability": "view",
      "type": "function"
    },
    {
      "inputs": [],
      "name": "pauseBidding",
      "outputs": [],
      "stateMutability": "nonpayable",
      "type": "function"
    },
    {
      "inputs": [
        {
          "internalType": "string",
          "name": "encryptedBid",
          "type": "string"
        }
      ],
      "name": "placeBid",
      "outputs": [],
      "stateMutability": "payable",
      "type": "function"
    },
    {
      "inputs": [],
      "name": "projectDescription",
      "outputs": [
        {
          "internalType": "string",
          "name": "",
          "type": "string"
        }
      ],
      "stateMutability": "view",
      "type": "function"
    },
    {
      "inputs": [],
      "name": "projectMetrics",
      "outputs": [
        {
          "internalType": "string",
          "name": "",
          "type": "string"
        }
      ],
      "stateMutability": "view",
      "type": "function"
    },
    {
      "inputs": [],
      "name": "projectName",
      "outputs": [
        {
          "internalType": "string",
          "name": "",
          "type": "string"
        }
      ],
      "stateMutability": "view",
      "type": "function"
    },
    {
      "inputs": [],
      "name": "resumeBidding",
      "outputs": [],
      "stateMutability": "nonpayable",
      "type": "function"
    },
    {
      "inputs": [
        {
          "internalType": "int256",
          "name": "bidAmount",
          "type": "int256"
        }
      ],
      "name": "revealBid",
      "outputs": [],
      "stateMutability": "nonpayable",
      "type": "function"
    }
  ],
  "bytecode": "0x60806040523480156200001157600080fd5b5060405162001edb38038062001edb83398181016040528101906200003791906200033c565b6005835110156200007f576040517f08c379a0000000000000000000000000000000000000000000000000000000008152600401620000769062000456565b60405180910390fd5b601e82511015620000c7576040517f08c379a0000000000000000000000000000000000000000000000000000000008152600401620000be90620004ee565b60405180910390fd5b6032815110156200010f576040517f08c379a0000000000000000000000000000000000000000000000000000000008152600401620001069062000560565b60405180910390fd5b336000806101000a81548173ffffffffffffffffffffffffffffffffffffffff021916908373ffffffffffffffffffffffffffffffffffffffff1602179055508260039081620001609190620007cd565b508160049081620001729190620007cd565b508060059081620001849190620007cd565b506000600960006101000a81548160ff021916908315150217905550505050620008b4565b6000604051905090565b600080fd5b600080fd5b600080fd5b600080fd5b6000601f19601f8301169050919050565b7f4e487b7100000000000000000000000000000000000000000000000000000000600052604160045260246000fd5b6200021282620001c7565b810181811067ffffffffffffffff82111715620002345762000233620001d8565b5b80604052505050565b600062000249620001a9565b905062000257828262000207565b919050565b600067ffffffffffffffff8211156200027a5762000279620001d8565b5b6200028582620001c7565b9050602081019050919050565b60005b83811015620002b257808201518184015260208101905062000295565b60008484015250505050565b6000620002d5620002cf846200025c565b6200023d565b905082815260208101848484011115620002f457620002f3620001c2565b5b6200030184828562000292565b509392505050565b600082601f830112620003215762000320620001bd565b5b815162000333848260208601620002be565b91505092915050565b600080600060608486031215620003585762000357620001b3565b5b600084015167ffffffffffffffff811115620003795762000378620001b8565b5b620003878682870162000309565b935050602084015167ffffffffffffffff811115620003ab57620003aa620001b8565b5b620003b98682870162000309565b925050604084015167ffffffffffffffff811115620003dd57620003dc620001b8565b5b620003eb8682870162000309565b9150509250925092565b600082825260208201905092915050565b7f50726f6a656374206e616d652063616e6e6f7420626520656d70747900000000600082015250565b60006200043e601c83620003f5565b91506200044b8262000406565b602082019050919050565b6000602082019050818103600083015262000471816200042f565b9050919050565b7f50726f6a656374206465736372697074696f6e2063616e6e6f7420626520656d60008201527f7074790000000000000000000000000000000000000000000000000000000000602082015250565b6000620004d6602383620003f5565b9150620004e38262000478565b604082019050919050565b600060208201905081810360008301526200050981620004c7565b9050919050565b7f50726f6a656374206d6574726963732063616e6e6f7420626520656d70747900600082015250565b600062000548601f83620003f5565b9150620005558262000510565b602082019050919050565b600060208201905081810360008301526200057b8162000539565b9050919050565b600081519050919050565b7f4e487b7100000000000000000000000000000000000000000000000000000000600052602260045260246000fd5b60006002820490506001821680620005d557607f821691505b602082108103620005eb57620005ea6200058d565b5b50919050565b60008190508160005260206000209050919050565b60006020601f8301049050919050565b600082821b905092915050565b600060088302620006557fffffffffffffffffffffffffffffffffffffffffffffffffffffffffffffffff8262000616565b62000661868362000616565b95508019841693508086168417925050509392505050565b6000819050919050565b6000819050919050565b6000620006ae620006a8620006a28462000679565b62000683565b62000679565b9050919050565b6000819050919050565b620006ca836200068d565b620006e2620006d982620006b5565b84845462000623565b825550505050565b600090565b620006f9620006ea565b62000706818484620006bf565b505050565b5b818110156200072e5762000722600082620006ef565b6001810190506200070c565b5050565b601f8211156200077d576200074781620005f1565b620007528462000606565b8101602085101562000762578190505b6200077a620007718562000606565b8301826200070b565b50505b505050565b600082821c905092915050565b6000620007a26000198460080262000782565b1980831691505092915050565b6000620007bd83836200078f565b9150826002028217905092915050565b620007d88262000582565b67ffffffffffffffff811115620007f457620007f3620001d8565b5b620008008254620005bc565b6200080d82828562000732565b600060209050601f83116001811462000845576000841562000830578287015190505b6200083c8582620007af565b865550620008ac565b601f1984166200085586620005f1565b60005b828110156200087f5784890151825560018201915060208501945060208101905062000858565b868310156200089f57848901516200089b601f8916826200078f565b8355505b6001600288020188555050505b505050505050565b61161780620008c46000396000f3fe6080604052600436106100c25760003560e01c8063723396b91161007f5780639d9d3b2d116100595780639d9d3b2d1461026a578063e967e60c14610281578063f38532c21461029d578063f896a376146102b4576100c2565b8063723396b9146101fd578063755f047b146102145780639a33e3001461023f576100c2565b806306e6386f146100c75780630849f31d146101045780630f3f02b21461012f57806318874da81461016c5780634c396d3f1461019557806362ea82db146101c0575b600080fd5b3480156100d357600080fd5b506100ee60048036038101906100e99190610cdd565b6102df565b6040516100fb9190610d25565b60405180910390f35b34801561011057600080fd5b50610119610336565b6040516101269190610d25565b60405180910390f35b34801561013b57600080fd5b5061015660048036038101906101519190610cdd565b610349565b6040516101639190610dd0565b60405180910390f35b34801561017857600080fd5b50610193600480360381019061018e9190610e28565b6103e9565b005b3480156101a157600080fd5b506101aa610522565b6040516101b79190610dd0565b60405180910390f35b3480156101cc57600080fd5b506101e760048036038101906101e29190610cdd565b6105b0565b6040516101f49190610e64565b60405180910390f35b34801561020957600080fd5b506102126105c8565b005b34801561022057600080fd5b506102296106f5565b6040516102369190610dd0565b60405180910390f35b34801561024b57600080fd5b50610254610783565b6040516102619190610dd0565b60405180910390f35b34801561027657600080fd5b5061027f610811565b005b61029b60048036038101906102969190610fb4565b610a52565b005b3480156102a957600080fd5b506102b2610b31565b005b3480156102c057600080fd5b506102c9610c5e565b6040516102d69190611016565b60405180910390f35b600080600660008473ffffffffffffffffffffffffffffffffffffffff1673ffffffffffffffffffffffffffffffffffffffff168152602001908152602001600020805461032c90611060565b9050119050919050565b600960009054906101000a900460ff1681565b6006602052806000526040600020600091509050805461036890611060565b80601f016020809104026020016040519081016040528092919081815260200182805461039490611060565b80156103e15780601f106103b6576101008083540402835291602001916103e1565b820191906000526020600020905b8154815290600101906020018083116103c457829003601f168201915b505050505081565b60001515600960009054906101000a900460ff1615151461043f576040517f08c379a0000000000000000000000000000000000000000000000000000000008152600401610436906110dd565b60405180910390fd5b80600760003373ffffffffffffffffffffffffffffffffffffffff1673ffffffffffffffffffffffffffffffffffffffff168152602001908152602001600020819055506008339080600181540180825580915050600190039060005260206000200160009091909190916101000a81548173ffffffffffffffffffffffffffffffffffffffff021916908373ffffffffffffffffffffffffffffffffffffffff1602179055507feff79c505d5e7b944e779e0e4dfaeca7eb1f161aaee4fc533691963ec86e70a5338260405161051792919061110c565b60405180910390a150565b6005805461052f90611060565b80601f016020809104026020016040519081016040528092919081815260200182805461055b90611060565b80156105a85780601f1061057d576101008083540402835291602001916105a8565b820191906000526020600020905b81548152906001019060200180831161058b57829003601f168201915b505050505081565b60076020528060005260406000206000915090505481565b60008054906101000a900473ffffffffffffffffffffffffffffffffffffffff1673ffffffffffffffffffffffffffffffffffffffff163373ffffffffffffffffffffffffffffffffffffffff1614610656576040517f08c379a000000000000000000000000000000000000000000000000000000000815260040161064d906111a7565b60405180910390fd5b60001515600960009054906101000a900460ff161515146106ac576040517f08c379a00000000000000000000000000000000000000000000000000000000081526004016106a390611213565b60405180910390fd5b6001600960006101000a81548160ff0219169083151502179055507f4cd156ab804e9e9d4ec1f6a25bcba9f82e357ceb26dbc50ef6c6140446736aaa60405160405180910390a1565b6004805461070290611060565b80601f016020809104026020016040519081016040528092919081815260200182805461072e90611060565b801561077b5780601f106107505761010080835404028352916020019161077b565b820191906000526020600020905b81548152906001019060200180831161075e57829003601f168201915b505050505081565b6003805461079090611060565b80601f01602080910402602001604051908101604052809291908181526020018280546107bc90611060565b80156108095780601f106107de57610100808354040283529160200191610809565b820191906000526020600020905b8154815290600101906020018083116107ec57829003601f168201915b505050505081565b60008054906101000a900473ffffffffffffffffffffffffffffffffffffffff1673ffffffffffffffffffffffffffffffffffffffff163373ffffffffffffffffffffffffffffffffffffffff161461089f576040517f08c379a0000000000000000000000000000000000000000000000000000000008152600401610896906111a7565b60405180910390fd5b600360088054905010156108e8576040517f08c379a00000000000000000000000000000000000000000000000000000000081526004016108df9061127f565b60405180910390fd5b60007f7fffffffffffffffffffffffffffffffffffffffffffffffffffffffffffffff9050600080600090505b6008805490508110156109c7576000600882815481106109385761093761129f565b5b9060005260206000200160009054906101000a900473ffffffffffffffffffffffffffffffffffffffff1690506000600760008373ffffffffffffffffffffffffffffffffffffffff1673ffffffffffffffffffffffffffffffffffffffff168152602001908152602001600020549050848112156109b8578094508193505b50508080600101915050610915565b5080600160000160006101000a81548173ffffffffffffffffffffffffffffffffffffffff021916908373ffffffffffffffffffffffffffffffffffffffff1602179055508160018001819055507fb1ac22378f03bbcd6605ff5bcb60d231d67fb6ac00a4276b16f8bc25245d15778183604051610a4692919061110c565b60405180910390a15050565b60001515600960009054906101000a900460ff16151514610aa8576040517f08c379a0000000000000000000000000000000000000000000000000000000008152600401610a9f906110dd565b60405180910390fd5b80600660003373ffffffffffffffffffffffffffffffffffffffff1673ffffffffffffffffffffffffffffffffffffffff1681526020019081526020016000209081610af4919061147a565b507f3fabff0a9c3ecd6814702e247fa9733e5d0aa69e3a38590f92cb18f623a2254d3334604051610b2692919061154c565b60405180910390a150565b60008054906101000a900473ffffffffffffffffffffffffffffffffffffffff1673ffffffffffffffffffffffffffffffffffffffff163373ffffffffffffffffffffffffffffffffffffffff1614610bbf576040517f08c379a0000000000000000000000000000000000000000000000000000000008152600401610bb6906111a7565b60405180910390fd5b60011515600960009054906101000a900460ff16151514610c15576040517f08c379a0000000000000000000000000000000000000000000000000000000008152600401610c0c906115c1565b60405180910390fd5b6000600960006101000a81548160ff0219169083151502179055507f7034ea9978f4090c95c8f1776993ff2ee9c27b04375c47885f33a2a1a6df4e8c60405160405180910390a1565b6000600880549050905090565b6000604051905090565b600080fd5b600080fd5b600073ffffffffffffffffffffffffffffffffffffffff82169050919050565b6000610caa82610c7f565b9050919050565b610cba81610c9f565b8114610cc557600080fd5b50565b600081359050610cd781610cb1565b92915050565b600060208284031215610cf357610cf2610c75565b5b6000610d0184828501610cc8565b91505092915050565b60008115159050919050565b610d1f81610d0a565b82525050565b6000602082019050610d3a6000830184610d16565b92915050565b600081519050919050565b600082825260208201905092915050565b60005b83811015610d7a578082015181840152602081019050610d5f565b60008484015250505050565b6000601f19601f8301169050919050565b6000610da282610d40565b610dac8185610d4b565b9350610dbc818560208601610d5c565b610dc581610d86565b840191505092915050565b60006020820190508181036000830152610dea8184610d97565b905092915050565b6000819050919050565b610e0581610df2565b8114610e1057600080fd5b50565b600081359050610e2281610dfc565b92915050565b600060208284031215610e3e57610e3d610c75565b5b6000610e4c84828501610e13565b91505092915050565b610e5e81610df2565b82525050565b6000602082019050610e796000830184610e55565b92915050565b600080fd5b600080fd5b7f4e487b7100000000000000000000000000000000000000000000000000000000600052604160045260246000fd5b610ec182610d86565b810181811067ffffffffffffffff82111715610ee057610edf610e89565b5b80604052505050565b6000610ef3610c6b565b9050610eff8282610eb8565b919050565b600067ffffffffffffffff821115610f1f57610f1e610e89565b5b610f2882610d86565b9050602081019050919050565b82818337600083830152505050565b6000610f57610f5284610f04565b610ee9565b905082815260208101848484011115610f7357610f72610e84565b5b610f7e848285610f35565b509392505050565b600082601f830112610f9b57610f9a610e7f565b5b8135610fab848260208601610f44565b91505092915050565b600060208284031215610fca57610fc9610c75565b5b600082013567ffffffffffffffff811115610fe857610fe7610c7a565b5b610ff484828501610f86565b91505092915050565b6000819050919050565b61101081610ffd565b82525050565b600060208201905061102b6000830184611007565b92915050565b7f4e487b7100000000000000000000000000000000000000000000000000000000600052602260045260246000fd5b6000600282049050600182168061107857607f821691505b60208210810361108b5761108a611031565b5b50919050565b7f42696464696e672069732063757272656e746c79207061757365640000000000600082015250565b60006110c7601b83610d4b565b91506110d282611091565b602082019050919050565b600060208201905081810360008301526110f6816110ba565b9050919050565b61110681610c9f565b82525050565b600060408201905061112160008301856110fd565b61112e6020830184610e55565b9392505050565b7f4f6e6c79206f776e65722063616e2063616c6c20746869732066756e6374696f60008201527f6e00000000000000000000000000000000000000000000000000000000000000602082015250565b6000611191602183610d4b565b915061119c82611135565b604082019050919050565b600060208201905081810360008301526111c081611184565b9050919050565b7f42696464696e6720697320616c72656164792070617573656400000000000000600082015250565b60006111fd601983610d4b565b9150611208826111c7565b602082019050919050565b6000602082019050818103600083015261122c816111f0565b9050919050565b7f4174206c65617374203320626964646572732072657175697265640000000000600082015250565b6000611269601b83610d4b565b915061127482611233565b602082019050919050565b600060208201905081810360008301526112988161125c565b9050919050565b7f4e487b7100000000000000000000000000000000000000000000000000000000600052603260045260246000fd5b60008190508160005260206000209050919050565b60006020601f8301049050919050565b600082821b905092915050565b6000600883026113307fffffffffffffffffffffffffffffffffffffffffffffffffffffffffffffffff826112f3565b61133a86836112f3565b95508019841693508086168417925050509392505050565b6000819050919050565b600061137761137261136d84610ffd565b611352565b610ffd565b9050919050565b6000819050919050565b6113918361135c565b6113a561139d8261137e565b848454611300565b825550505050565b600090565b6113ba6113ad565b6113c5818484611388565b505050565b5b818110156113e9576113de6000826113b2565b6001810190506113cb565b5050565b601f82111561142e576113ff816112ce565b611408846112e3565b81016020851015611417578190505b61142b611423856112e3565b8301826113ca565b50505b505050565b600082821c905092915050565b600061145160001984600802611433565b1980831691505092915050565b600061146a8383611440565b9150826002028217905092915050565b61148382610d40565b67ffffffffffffffff81111561149c5761149b610e89565b5b6114a68254611060565b6114b18282856113ed565b600060209050601f8311600181146114e457600084156114d2578287015190505b6114dc858261145e565b865550611544565b601f1984166114f2866112ce565b60005b8281101561151a578489015182556001820191506020850194506020810190506114f5565b868310156115375784890151611533601f891682611440565b8355505b6001600288020188555050505b505050505050565b600060408201905061156160008301856110fd565b61156e6020830184611007565b9392505050565b7f42696464696e67206973206e6f74207061757365640000000000000000000000600082015250565b60006115ab601583610d4b565b91506115b682611575565b602082019050919050565b600060208201905081810360008301526115da8161159e565b905091905056fea2646970667358221220bbd771f9cd3ed7c06b1c5ef2daeb7cfab492e1858ca6504991103552c560225064736f6c63430008180033",
  "linkReferences": {},
  "deployedLinkReferences": {}
}