{
  "_format": "hh-sol-artifact-1",
  "contractName": "Bidding",
  "sourceName": "contracts/bidding.sol",
  "abi": [
    {
      "inputs": [
        {
          "internalType": "string",
          "name": "_projectName",
          "type": "string"
        },
        {
          "internalType": "string",
          "name": "_projectDescription",
          "type": "string"
        },
        {
          "internalType": "string",
          "name": "_projectMetrics",
          "type": "string"
        }
      ],
      "stateMutability": "nonpayable",
      "type": "constructor"
    },
    {
      "anonymous": false,
      "inputs": [
        {
          "indexed": false,
          "internalType": "address",
          "name": "bidder",
          "type": "address"
        },
        {
          "indexed": false,
          "internalType": "uint256",
          "name": "bidAmount",
          "type": "uint256"
        }
      ],
      "name": "BidPlaced",
      "type": "event"
    },
    {
      "anonymous": false,
      "inputs": [
        {
          "indexed": false,
          "internalType": "address",
          "name": "bidder",
          "type": "address"
        },
        {
          "indexed": false,
          "internalType": "int256",
          "name": "bidAmount",
          "type": "int256"
        }
      ],
      "name": "BidRevealed",
      "type": "event"
    },
    {
      "anonymous": false,
      "inputs": [],
      "name": "BiddingPaused",
      "type": "event"
    },
    {
      "anonymous": false,
      "inputs": [],
      "name": "BiddingResumed",
      "type": "event"
    },
    {
      "anonymous": false,
      "inputs": [
        {
          "indexed": false,
          "internalType": "address",
          "name": "winner",
          "type": "address"
        },
        {
          "indexed": false,
          "internalType": "int256",
          "name": "winningBid",
          "type": "int256"
        }
      ],
      "name": "WinnerComputed",
      "type": "event"
    },
    {
      "inputs": [
        {
          "internalType": "address",
          "name": "",
          "type": "address"
        }
      ],
      "name": "bids",
      "outputs": [
        {
          "internalType": "int256",
          "name": "",
          "type": "int256"
        }
      ],
      "stateMutability": "view",
      "type": "function"
    },
    {
      "inputs": [],
      "name": "computeWinner",
      "outputs": [],
      "stateMutability": "nonpayable",
      "type": "function"
    },
    {
      "inputs": [
        {
          "internalType": "address",
          "name": "",
          "type": "address"
        }
      ],
      "name": "encryptedBids",
      "outputs": [
        {
          "internalType": "bytes",
          "name": "",
          "type": "bytes"
        }
      ],
      "stateMutability": "view",
      "type": "function"
    },
    {
      "inputs": [],
      "name": "pauseBidding",
      "outputs": [],
      "stateMutability": "nonpayable",
      "type": "function"
    },
    {
      "inputs": [
        {
          "internalType": "bytes",
          "name": "encryptedBid",
          "type": "bytes"
        }
      ],
      "name": "placeBid",
      "outputs": [],
      "stateMutability": "payable",
      "type": "function"
    },
    {
      "inputs": [],
      "name": "projectDescription",
      "outputs": [
        {
          "internalType": "string",
          "name": "",
          "type": "string"
        }
      ],
      "stateMutability": "view",
      "type": "function"
    },
    {
      "inputs": [],
      "name": "projectMetrics",
      "outputs": [
        {
          "internalType": "string",
          "name": "",
          "type": "string"
        }
      ],
      "stateMutability": "view",
      "type": "function"
    },
    {
      "inputs": [],
      "name": "projectName",
      "outputs": [
        {
          "internalType": "string",
          "name": "",
          "type": "string"
        }
      ],
      "stateMutability": "view",
      "type": "function"
    },
    {
      "inputs": [],
      "name": "resumeBidding",
      "outputs": [],
      "stateMutability": "nonpayable",
      "type": "function"
    },
    {
      "inputs": [
        {
          "internalType": "int256",
          "name": "bidAmount",
          "type": "int256"
        },
        {
          "internalType": "bytes32",
          "name": "salt",
          "type": "bytes32"
        }
      ],
      "name": "revealBid",
      "outputs": [],
      "stateMutability": "nonpayable",
      "type": "function"
    },
    {
      "inputs": [
        {
          "internalType": "bytes",
          "name": "data",
          "type": "bytes"
        }
      ],
      "name": "toString",
      "outputs": [
        {
          "internalType": "string",
          "name": "",
          "type": "string"
        }
      ],
      "stateMutability": "pure",
      "type": "function"
    }
  ],
  "bytecode": "0x60806040523480156200001157600080fd5b50604051620024e8380380620024e883398181016040528101906200003791906200033c565b6005835110156200007f576040517f08c379a0000000000000000000000000000000000000000000000000000000008152600401620000769062000456565b60405180910390fd5b601e82511015620000c7576040517f08c379a0000000000000000000000000000000000000000000000000000000008152600401620000be90620004ee565b60405180910390fd5b6032815110156200010f576040517f08c379a0000000000000000000000000000000000000000000000000000000008152600401620001069062000560565b60405180910390fd5b336000806101000a81548173ffffffffffffffffffffffffffffffffffffffff021916908373ffffffffffffffffffffffffffffffffffffffff1602179055508260039081620001609190620007cd565b508160049081620001729190620007cd565b508060059081620001849190620007cd565b506000600960006101000a81548160ff021916908315150217905550505050620008b4565b6000604051905090565b600080fd5b600080fd5b600080fd5b600080fd5b6000601f19601f8301169050919050565b7f4e487b7100000000000000000000000000000000000000000000000000000000600052604160045260246000fd5b6200021282620001c7565b810181811067ffffffffffffffff82111715620002345762000233620001d8565b5b80604052505050565b600062000249620001a9565b905062000257828262000207565b919050565b600067ffffffffffffffff8211156200027a5762000279620001d8565b5b6200028582620001c7565b9050602081019050919050565b60005b83811015620002b257808201518184015260208101905062000295565b60008484015250505050565b6000620002d5620002cf846200025c565b6200023d565b905082815260208101848484011115620002f457620002f3620001c2565b5b6200030184828562000292565b509392505050565b600082601f830112620003215762000320620001bd565b5b815162000333848260208601620002be565b91505092915050565b600080600060608486031215620003585762000357620001b3565b5b600084015167ffffffffffffffff811115620003795762000378620001b8565b5b620003878682870162000309565b935050602084015167ffffffffffffffff811115620003ab57620003aa620001b8565b5b620003b98682870162000309565b925050604084015167ffffffffffffffff811115620003dd57620003dc620001b8565b5b620003eb8682870162000309565b9150509250925092565b600082825260208201905092915050565b7f50726f6a656374206e616d652063616e6e6f7420626520656d70747900000000600082015250565b60006200043e601c83620003f5565b91506200044b8262000406565b602082019050919050565b6000602082019050818103600083015262000471816200042f565b9050919050565b7f50726f6a656374206465736372697074696f6e2063616e6e6f7420626520656d60008201527f7074790000000000000000000000000000000000000000000000000000000000602082015250565b6000620004d6602383620003f5565b9150620004e38262000478565b604082019050919050565b600060208201905081810360008301526200050981620004c7565b9050919050565b7f50726f6a656374206d6574726963732063616e6e6f7420626520656d70747900600082015250565b600062000548601f83620003f5565b9150620005558262000510565b602082019050919050565b600060208201905081810360008301526200057b8162000539565b9050919050565b600081519050919050565b7f4e487b7100000000000000000000000000000000000000000000000000000000600052602260045260246000fd5b60006002820490506001821680620005d557607f821691505b602082108103620005eb57620005ea6200058d565b5b50919050565b60008190508160005260206000209050919050565b60006020601f8301049050919050565b600082821b905092915050565b600060088302620006557fffffffffffffffffffffffffffffffffffffffffffffffffffffffffffffffff8262000616565b62000661868362000616565b95508019841693508086168417925050509392505050565b6000819050919050565b6000819050919050565b6000620006ae620006a8620006a28462000679565b62000683565b62000679565b9050919050565b6000819050919050565b620006ca836200068d565b620006e2620006d982620006b5565b84845462000623565b825550505050565b600090565b620006f9620006ea565b62000706818484620006bf565b505050565b5b818110156200072e5762000722600082620006ef565b6001810190506200070c565b5050565b601f8211156200077d576200074781620005f1565b620007528462000606565b8101602085101562000762578190505b6200077a620007718562000606565b8301826200070b565b50505b505050565b600082821c905092915050565b6000620007a26000198460080262000782565b1980831691505092915050565b6000620007bd83836200078f565b9150826002028217905092915050565b620007d88262000582565b67ffffffffffffffff811115620007f457620007f3620001d8565b5b620008008254620005bc565b6200080d82828562000732565b600060209050601f83116001811462000845576000841562000830578287015190505b6200083c8582620007af565b865550620008ac565b601f1984166200085586620005f1565b60005b828110156200087f5784890151825560018201915060208501945060208101905062000858565b868310156200089f57848901516200089b601f8916826200078f565b8355505b6001600288020188555050505b505050505050565b611c2480620008c46000396000f3fe60806040526004361061009c5760003560e01c8063755f047b11610064578063755f047b1461019a5780638c334e15146101c55780639a33e300146101ee5780639d9d3b2d14610219578063af1b246914610230578063f38532c21461024c5761009c565b80630f3f02b2146100a15780634c396d3f146100de57806362ea82db1461010957806371aad10d14610146578063723396b914610183575b600080fd5b3480156100ad57600080fd5b506100c860048036038101906100c39190610fc0565b610263565b6040516100d5919061107d565b60405180910390f35b3480156100ea57600080fd5b506100f3610303565b60405161010091906110f4565b60405180910390f35b34801561011557600080fd5b50610130600480360381019061012b9190610fc0565b610391565b60405161013d919061112f565b60405180910390f35b34801561015257600080fd5b5061016d6004803603810190610168919061127f565b6103a9565b60405161017a91906110f4565b60405180910390f35b34801561018f57600080fd5b50610198610480565b005b3480156101a657600080fd5b506101af6105ad565b6040516101bc91906110f4565b60405180910390f35b3480156101d157600080fd5b506101ec60048036038101906101e7919061132a565b61063b565b005b3480156101fa57600080fd5b506102036109aa565b60405161021091906110f4565b60405180910390f35b34801561022557600080fd5b5061022e610a38565b005b61024a6004803603810190610245919061127f565b610b73565b005b34801561025857600080fd5b50610261610c9c565b005b6006602052806000526040600020600091509050805461028290611399565b80601f01602080910402602001604051908101604052809291908181526020018280546102ae90611399565b80156102fb5780601f106102d0576101008083540402835291602001916102fb565b820191906000526020600020905b8154815290600101906020018083116102de57829003601f168201915b505050505081565b6005805461031090611399565b80601f016020809104026020016040519081016040528092919081815260200182805461033c90611399565b80156103895780601f1061035e57610100808354040283529160200191610389565b820191906000526020600020905b81548152906001019060200180831161036c57829003601f168201915b505050505081565b60076020528060005260406000206000915090505481565b60606000825167ffffffffffffffff8111156103c8576103c7611154565b5b6040519080825280601f01601f1916602001820160405280156103fa5781602001600182028036833780820191505090505b50905060005b83518110156104765783818151811061041c5761041b6113ca565b5b602001015160f81c60f81b82828151811061043a576104396113ca565b5b60200101907effffffffffffffffffffffffffffffffffffffffffffffffffffffffffffff1916908160001a9053508080600101915050610400565b5080915050919050565b60008054906101000a900473ffffffffffffffffffffffffffffffffffffffff1673ffffffffffffffffffffffffffffffffffffffff163373ffffffffffffffffffffffffffffffffffffffff161461050e576040517f08c379a00000000000000000000000000000000000000000000000000000000081526004016105059061146b565b60405180910390fd5b60001515600960009054906101000a900460ff16151514610564576040517f08c379a000000000000000000000000000000000000000000000000000000000815260040161055b906114d7565b60405180910390fd5b6001600960006101000a81548160ff0219169083151502179055507f4cd156ab804e9e9d4ec1f6a25bcba9f82e357ceb26dbc50ef6c6140446736aaa60405160405180910390a1565b600480546105ba90611399565b80601f01602080910402602001604051908101604052809291908181526020018280546105e690611399565b80156106335780601f1061060857610100808354040283529160200191610633565b820191906000526020600020905b81548152906001019060200180831161061657829003601f168201915b505050505081565b60001515600960009054906101000a900460ff16151514610691576040517f08c379a000000000000000000000000000000000000000000000000000000000815260040161068890611543565b60405180910390fd5b6000600660003373ffffffffffffffffffffffffffffffffffffffff1673ffffffffffffffffffffffffffffffffffffffff16815260200190815260200160002080546106dd90611399565b90500361071f576040517f08c379a0000000000000000000000000000000000000000000000000000000008152600401610716906115af565b60405180910390fd5b6000600660003373ffffffffffffffffffffffffffffffffffffffff1673ffffffffffffffffffffffffffffffffffffffff168152602001908152602001600020805461076b90611399565b80601f016020809104026020016040519081016040528092919081815260200182805461079790611399565b80156107e45780601f106107b9576101008083540402835291602001916107e4565b820191906000526020600020905b8154815290600101906020018083116107c757829003601f168201915b505050505090506000815167ffffffffffffffff81111561080857610807611154565b5b6040519080825280601f01601f19166020018201604052801561083a5781602001600182028036833780820191505090505b50905060005b82518110156108ce5783816020811061085c5761085b6113ca565b5b1a60f81b838281518110610873576108726113ca565b5b602001015160f81c60f81b18828281518110610892576108916113ca565b5b60200101907effffffffffffffffffffffffffffffffffffffffffffffffffffffffffffff1916908160001a9053508080600101915050610840565b5060006108e26108dd836103a9565b610dc9565b9050848114610926576040517f08c379a000000000000000000000000000000000000000000000000000000000815260040161091d9061161b565b60405180910390fd5b84600760003373ffffffffffffffffffffffffffffffffffffffff1673ffffffffffffffffffffffffffffffffffffffff168152602001908152602001600020819055507feff79c505d5e7b944e779e0e4dfaeca7eb1f161aaee4fc533691963ec86e70a5338660405161099b92919061164a565b60405180910390a15050505050565b600380546109b790611399565b80601f01602080910402602001604051908101604052809291908181526020018280546109e390611399565b8015610a305780601f10610a0557610100808354040283529160200191610a30565b820191906000526020600020905b815481529060010190602001808311610a1357829003601f168201915b505050505081565b60008054906101000a900473ffffffffffffffffffffffffffffffffffffffff1673ffffffffffffffffffffffffffffffffffffffff163373ffffffffffffffffffffffffffffffffffffffff1614610ac6576040517f08c379a0000000000000000000000000000000000000000000000000000000008152600401610abd9061146b565b60405180910390fd5b60036008805490501015610b0f576040517f08c379a0000000000000000000000000000000000000000000000000000000008152600401610b06906116bf565b60405180910390fd5b7fb1ac22378f03bbcd6605ff5bcb60d231d67fb6ac00a4276b16f8bc25245d1577600160000160009054906101000a900473ffffffffffffffffffffffffffffffffffffffff166001800154604051610b6992919061164a565b60405180910390a1565b60001515600960009054906101000a900460ff16151514610bc9576040517f08c379a0000000000000000000000000000000000000000000000000000000008152600401610bc090611543565b60405180910390fd5b671bc16d674ec800003414610c13576040517f08c379a0000000000000000000000000000000000000000000000000000000008152600401610c0a90611751565b60405180910390fd5b80600660003373ffffffffffffffffffffffffffffffffffffffff1673ffffffffffffffffffffffffffffffffffffffff1681526020019081526020016000209081610c5f9190611927565b507f3fabff0a9c3ecd6814702e247fa9733e5d0aa69e3a38590f92cb18f623a2254d3334604051610c91929190611a08565b60405180910390a150565b60008054906101000a900473ffffffffffffffffffffffffffffffffffffffff1673ffffffffffffffffffffffffffffffffffffffff163373ffffffffffffffffffffffffffffffffffffffff1614610d2a576040517f08c379a0000000000000000000000000000000000000000000000000000000008152600401610d219061146b565b60405180910390fd5b60011515600960009054906101000a900460ff16151514610d80576040517f08c379a0000000000000000000000000000000000000000000000000000000008152600401610d7790611a7d565b60405180910390fd5b6000600960006101000a81548160ff0219169083151502179055507f7034ea9978f4090c95c8f1776993ff2ee9c27b04375c47885f33a2a1a6df4e8c60405160405180910390a1565b60008082905060008060005b8351811015610f0d57600081148015610e4c57507f2d00000000000000000000000000000000000000000000000000000000000000848281518110610e1d57610e1c6113ca565b5b602001015160f81c60f81b7effffffffffffffffffffffffffffffffffffffffffffffffffffffffffffff1916145b15610e5657600191505b6030848281518110610e6b57610e6a6113ca565b5b602001015160f81c60f81b60f81c60ff1610158015610eae57506039848281518110610e9a57610e996113ca565b5b602001015160f81c60f81b60f81c60ff1611155b15610f0057600a83610ec09190611acc565b92506030848281518110610ed757610ed66113ca565b5b602001015160f81c60f81b60f81c610eef9190611b51565b60000b83610efd9190611baa565b92505b8080600101915050610dd5565b508015610f43577fffffffffffffffffffffffffffffffffffffffffffffffffffffffffffffffff82610f409190611acc565b91505b819350505050919050565b6000604051905090565b600080fd5b600080fd5b600073ffffffffffffffffffffffffffffffffffffffff82169050919050565b6000610f8d82610f62565b9050919050565b610f9d81610f82565b8114610fa857600080fd5b50565b600081359050610fba81610f94565b92915050565b600060208284031215610fd657610fd5610f58565b5b6000610fe484828501610fab565b91505092915050565b600081519050919050565b600082825260208201905092915050565b60005b8381101561102757808201518184015260208101905061100c565b60008484015250505050565b6000601f19601f8301169050919050565b600061104f82610fed565b6110598185610ff8565b9350611069818560208601611009565b61107281611033565b840191505092915050565b600060208201905081810360008301526110978184611044565b905092915050565b600081519050919050565b600082825260208201905092915050565b60006110c68261109f565b6110d081856110aa565b93506110e0818560208601611009565b6110e981611033565b840191505092915050565b6000602082019050818103600083015261110e81846110bb565b905092915050565b6000819050919050565b61112981611116565b82525050565b60006020820190506111446000830184611120565b92915050565b600080fd5b600080fd5b7f4e487b7100000000000000000000000000000000000000000000000000000000600052604160045260246000fd5b61118c82611033565b810181811067ffffffffffffffff821117156111ab576111aa611154565b5b80604052505050565b60006111be610f4e565b90506111ca8282611183565b919050565b600067ffffffffffffffff8211156111ea576111e9611154565b5b6111f382611033565b9050602081019050919050565b82818337600083830152505050565b600061122261121d846111cf565b6111b4565b90508281526020810184848401111561123e5761123d61114f565b5b611249848285611200565b509392505050565b600082601f8301126112665761126561114a565b5b813561127684826020860161120f565b91505092915050565b60006020828403121561129557611294610f58565b5b600082013567ffffffffffffffff8111156112b3576112b2610f5d565b5b6112bf84828501611251565b91505092915050565b6112d181611116565b81146112dc57600080fd5b50565b6000813590506112ee816112c8565b92915050565b6000819050919050565b611307816112f4565b811461131257600080fd5b50565b600081359050611324816112fe565b92915050565b6000806040838503121561134157611340610f58565b5b600061134f858286016112df565b925050602061136085828601611315565b9150509250929050565b7f4e487b7100000000000000000000000000000000000000000000000000000000600052602260045260246000fd5b600060028204905060018216806113b157607f821691505b6020821081036113c4576113c361136a565b5b50919050565b7f4e487b7100000000000000000000000000000000000000000000000000000000600052603260045260246000fd5b7f4f6e6c79206f776e65722063616e2063616c6c20746869732066756e6374696f60008201527f6e00000000000000000000000000000000000000000000000000000000000000602082015250565b60006114556021836110aa565b9150611460826113f9565b604082019050919050565b6000602082019050818103600083015261148481611448565b9050919050565b7f42696464696e6720697320616c72656164792070617573656400000000000000600082015250565b60006114c16019836110aa565b91506114cc8261148b565b602082019050919050565b600060208201905081810360008301526114f0816114b4565b9050919050565b7f42696464696e672069732063757272656e746c79207061757365640000000000600082015250565b600061152d601b836110aa565b9150611538826114f7565b602082019050919050565b6000602082019050818103600083015261155c81611520565b9050919050565b7f596f7520686176656e277420706c616365642061206269640000000000000000600082015250565b60006115996018836110aa565b91506115a482611563565b602082019050919050565b600060208201905081810360008301526115c88161158c565b9050919050565b7f496e76616c696420626964206f722073616c7400000000000000000000000000600082015250565b60006116056013836110aa565b9150611610826115cf565b602082019050919050565b60006020820190508181036000830152611634816115f8565b9050919050565b61164481610f82565b82525050565b600060408201905061165f600083018561163b565b61166c6020830184611120565b9392505050565b7f4174206c65617374203320626964646572732072657175697265640000000000600082015250565b60006116a9601b836110aa565b91506116b482611673565b602082019050919050565b600060208201905081810360008301526116d88161169c565b9050919050565b7f5374616b6520616d6f756e74206d7573742062652065786163746c792032206560008201527f7468657200000000000000000000000000000000000000000000000000000000602082015250565b600061173b6024836110aa565b9150611746826116df565b604082019050919050565b6000602082019050818103600083015261176a8161172e565b9050919050565b60008190508160005260206000209050919050565b60006020601f8301049050919050565b600082821b905092915050565b6000600883026117d37fffffffffffffffffffffffffffffffffffffffffffffffffffffffffffffffff82611796565b6117dd8683611796565b95508019841693508086168417925050509392505050565b6000819050919050565b6000819050919050565b600061182461181f61181a846117f5565b6117ff565b6117f5565b9050919050565b6000819050919050565b61183e83611809565b61185261184a8261182b565b8484546117a3565b825550505050565b600090565b61186761185a565b611872818484611835565b505050565b5b818110156118965761188b60008261185f565b600181019050611878565b5050565b601f8211156118db576118ac81611771565b6118b584611786565b810160208510156118c4578190505b6118d86118d085611786565b830182611877565b50505b505050565b600082821c905092915050565b60006118fe600019846008026118e0565b1980831691505092915050565b600061191783836118ed565b9150826002028217905092915050565b61193082610fed565b67ffffffffffffffff81111561194957611948611154565b5b6119538254611399565b61195e82828561189a565b600060209050601f831160018114611991576000841561197f578287015190505b611989858261190b565b8655506119f1565b601f19841661199f86611771565b60005b828110156119c7578489015182556001820191506020850194506020810190506119a2565b868310156119e457848901516119e0601f8916826118ed565b8355505b6001600288020188555050505b505050505050565b611a02816117f5565b82525050565b6000604082019050611a1d600083018561163b565b611a2a60208301846119f9565b9392505050565b7f42696464696e67206973206e6f74207061757365640000000000000000000000600082015250565b6000611a676015836110aa565b9150611a7282611a31565b602082019050919050565b60006020820190508181036000830152611a9681611a5a565b9050919050565b7f4e487b7100000000000000000000000000000000000000000000000000000000600052601160045260246000fd5b6000611ad782611116565b9150611ae283611116565b9250828202611af081611116565b91507f80000000000000000000000000000000000000000000000000000000000000008414600084121615611b2857611b27611a9d565b5b8282058414831517611b3d57611b3c611a9d565b5b5092915050565b60008160000b9050919050565b6000611b5c82611b44565b9150611b6783611b44565b92508282039050607f81137fffffffffffffffffffffffffffffffffffffffffffffffffffffffffffffff8082121715611ba457611ba3611a9d565b5b92915050565b6000611bb582611116565b9150611bc083611116565b925082820190508281121560008312168382126000841215161715611be857611be7611a9d565b5b9291505056fea264697066735822122012f70c81d5600cf330afe742f7b4877ada5d77a00de023d53999181f5650ddec64736f6c63430008180033",
  "linkReferences": {},
  "deployedLinkReferences": {}
}