{
  "_format": "hh-sol-artifact-1",
  "contractName": "Bidding",
  "sourceName": "contracts/bidding.sol",
  "abi": [
    {
      "inputs": [
        {
          "internalType": "string",
          "name": "_projectName",
          "type": "string"
        },
        {
          "internalType": "string",
          "name": "_projectDescription",
          "type": "string"
        },
        {
          "internalType": "string",
          "name": "_projectMetrics",
          "type": "string"
        }
      ],
      "stateMutability": "nonpayable",
      "type": "constructor"
    },
    {
      "anonymous": false,
      "inputs": [
        {
          "indexed": false,
          "internalType": "address",
          "name": "bidder",
          "type": "address"
        },
        {
          "indexed": false,
          "internalType": "uint256",
          "name": "bidAmount",
          "type": "uint256"
        }
      ],
      "name": "BidPlaced",
      "type": "event"
    },
    {
      "anonymous": false,
      "inputs": [
        {
          "indexed": false,
          "internalType": "address",
          "name": "bidder",
          "type": "address"
        },
        {
          "indexed": false,
          "internalType": "int256",
          "name": "bidAmount",
          "type": "int256"
        }
      ],
      "name": "BidRevealed",
      "type": "event"
    },
    {
      "anonymous": false,
      "inputs": [],
      "name": "BiddingPaused",
      "type": "event"
    },
    {
      "anonymous": false,
      "inputs": [],
      "name": "BiddingResumed",
      "type": "event"
    },
    {
      "anonymous": false,
      "inputs": [
        {
          "indexed": false,
          "internalType": "address",
          "name": "winner",
          "type": "address"
        },
        {
          "indexed": false,
          "internalType": "int256",
          "name": "winningBid",
          "type": "int256"
        }
      ],
      "name": "WinnerComputed",
      "type": "event"
    },
    {
      "inputs": [],
      "name": "biddingPaused",
      "outputs": [
        {
          "internalType": "bool",
          "name": "",
          "type": "bool"
        }
      ],
      "stateMutability": "view",
      "type": "function"
    },
    {
      "inputs": [
        {
          "internalType": "address",
          "name": "",
          "type": "address"
        }
      ],
      "name": "bids",
      "outputs": [
        {
          "internalType": "int256",
          "name": "",
          "type": "int256"
        }
      ],
      "stateMutability": "view",
      "type": "function"
    },
    {
      "inputs": [],
      "name": "computeWinner",
      "outputs": [],
      "stateMutability": "nonpayable",
      "type": "function"
    },
    {
      "inputs": [
        {
          "internalType": "address",
          "name": "",
          "type": "address"
        }
      ],
      "name": "encryptedBids",
      "outputs": [
        {
          "internalType": "string",
          "name": "",
          "type": "string"
        }
      ],
      "stateMutability": "view",
      "type": "function"
    },
    {
      "inputs": [],
      "name": "escrowAddress",
      "outputs": [
        {
          "internalType": "address",
          "name": "",
          "type": "address"
        }
      ],
      "stateMutability": "view",
      "type": "function"
    },
    {
      "inputs": [],
      "name": "getNumBidsPlaced",
      "outputs": [
        {
          "internalType": "uint256",
          "name": "",
          "type": "uint256"
        }
      ],
      "stateMutability": "view",
      "type": "function"
    },
    {
      "inputs": [
        {
          "internalType": "address",
          "name": "bidder",
          "type": "address"
        }
      ],
      "name": "hasPlacedBid",
      "outputs": [
        {
          "internalType": "bool",
          "name": "",
          "type": "bool"
        }
      ],
      "stateMutability": "view",
      "type": "function"
    },
    {
      "inputs": [],
      "name": "owner",
      "outputs": [
        {
          "internalType": "address",
          "name": "",
          "type": "address"
        }
      ],
      "stateMutability": "view",
      "type": "function"
    },
    {
      "inputs": [],
      "name": "pauseBidding",
      "outputs": [],
      "stateMutability": "nonpayable",
      "type": "function"
    },
    {
      "inputs": [
        {
          "internalType": "string",
          "name": "encryptedBid",
          "type": "string"
        }
      ],
      "name": "placeBid",
      "outputs": [],
      "stateMutability": "payable",
      "type": "function"
    },
    {
      "inputs": [],
      "name": "projectDescription",
      "outputs": [
        {
          "internalType": "string",
          "name": "",
          "type": "string"
        }
      ],
      "stateMutability": "view",
      "type": "function"
    },
    {
      "inputs": [],
      "name": "projectMetrics",
      "outputs": [
        {
          "internalType": "string",
          "name": "",
          "type": "string"
        }
      ],
      "stateMutability": "view",
      "type": "function"
    },
    {
      "inputs": [],
      "name": "projectName",
      "outputs": [
        {
          "internalType": "string",
          "name": "",
          "type": "string"
        }
      ],
      "stateMutability": "view",
      "type": "function"
    },
    {
      "inputs": [],
      "name": "resumeBidding",
      "outputs": [],
      "stateMutability": "nonpayable",
      "type": "function"
    },
    {
      "inputs": [
        {
          "internalType": "int256",
          "name": "bidAmount",
          "type": "int256"
        }
      ],
      "name": "revealBid",
      "outputs": [],
      "stateMutability": "nonpayable",
      "type": "function"
    },
    {
      "inputs": [
        {
          "internalType": "address",
          "name": "_escrowAddress",
          "type": "address"
        }
      ],
      "name": "setEscrowAddress",
      "outputs": [],
      "stateMutability": "nonpayable",
      "type": "function"
    },
    {
      "inputs": [],
      "name": "winner",
      "outputs": [
        {
          "internalType": "address",
          "name": "",
          "type": "address"
        }
      ],
      "stateMutability": "view",
      "type": "function"
    },
    {
      "inputs": [],
      "name": "winnerCalculated",
      "outputs": [
        {
          "internalType": "bool",
          "name": "",
          "type": "bool"
        }
      ],
      "stateMutability": "view",
      "type": "function"
    },
    {
      "inputs": [],
      "name": "winningBid",
      "outputs": [
        {
          "internalType": "int256",
          "name": "",
          "type": "int256"
        }
      ],
      "stateMutability": "view",
      "type": "function"
    }
  ],
  "bytecode": "0x60806040523480156200001157600080fd5b506040516200211f3803806200211f833981810160405281019062000037919062000357565b6005835110156200007f576040517f08c379a0000000000000000000000000000000000000000000000000000000008152600401620000769062000471565b60405180910390fd5b601e82511015620000c7576040517f08c379a0000000000000000000000000000000000000000000000000000000008152600401620000be9062000509565b60405180910390fd5b6032815110156200010f576040517f08c379a000000000000000000000000000000000000000000000000000000000815260040162000106906200057b565b60405180910390fd5b336000806101000a81548173ffffffffffffffffffffffffffffffffffffffff021916908373ffffffffffffffffffffffffffffffffffffffff1602179055508260039081620001609190620007e8565b508160049081620001729190620007e8565b508060059081620001849190620007e8565b506000600960006101000a81548160ff0219169083151502179055506000600960016101000a81548160ff021916908315150217905550505050620008cf565b6000604051905090565b600080fd5b600080fd5b600080fd5b600080fd5b6000601f19601f8301169050919050565b7f4e487b7100000000000000000000000000000000000000000000000000000000600052604160045260246000fd5b6200022d82620001e2565b810181811067ffffffffffffffff821117156200024f576200024e620001f3565b5b80604052505050565b600062000264620001c4565b905062000272828262000222565b919050565b600067ffffffffffffffff821115620002955762000294620001f3565b5b620002a082620001e2565b9050602081019050919050565b60005b83811015620002cd578082015181840152602081019050620002b0565b60008484015250505050565b6000620002f0620002ea8462000277565b62000258565b9050828152602081018484840111156200030f576200030e620001dd565b5b6200031c848285620002ad565b509392505050565b600082601f8301126200033c576200033b620001d8565b5b81516200034e848260208601620002d9565b91505092915050565b600080600060608486031215620003735762000372620001ce565b5b600084015167ffffffffffffffff811115620003945762000393620001d3565b5b620003a28682870162000324565b935050602084015167ffffffffffffffff811115620003c657620003c5620001d3565b5b620003d48682870162000324565b925050604084015167ffffffffffffffff811115620003f857620003f7620001d3565b5b620004068682870162000324565b9150509250925092565b600082825260208201905092915050565b7f50726f6a656374206e616d652063616e6e6f7420626520656d70747900000000600082015250565b600062000459601c8362000410565b9150620004668262000421565b602082019050919050565b600060208201905081810360008301526200048c816200044a565b9050919050565b7f50726f6a656374206465736372697074696f6e2063616e6e6f7420626520656d60008201527f7074790000000000000000000000000000000000000000000000000000000000602082015250565b6000620004f160238362000410565b9150620004fe8262000493565b604082019050919050565b600060208201905081810360008301526200052481620004e2565b9050919050565b7f50726f6a656374206d6574726963732063616e6e6f7420626520656d70747900600082015250565b600062000563601f8362000410565b915062000570826200052b565b602082019050919050565b60006020820190508181036000830152620005968162000554565b9050919050565b600081519050919050565b7f4e487b7100000000000000000000000000000000000000000000000000000000600052602260045260246000fd5b60006002820490506001821680620005f057607f821691505b602082108103620006065762000605620005a8565b5b50919050565b60008190508160005260206000209050919050565b60006020601f8301049050919050565b600082821b905092915050565b600060088302620006707fffffffffffffffffffffffffffffffffffffffffffffffffffffffffffffffff8262000631565b6200067c868362000631565b95508019841693508086168417925050509392505050565b6000819050919050565b6000819050919050565b6000620006c9620006c3620006bd8462000694565b6200069e565b62000694565b9050919050565b6000819050919050565b620006e583620006a8565b620006fd620006f482620006d0565b8484546200063e565b825550505050565b600090565b6200071462000705565b62000721818484620006da565b505050565b5b8181101562000749576200073d6000826200070a565b60018101905062000727565b5050565b601f821115620007985762000762816200060c565b6200076d8462000621565b810160208510156200077d578190505b620007956200078c8562000621565b83018262000726565b50505b505050565b600082821c905092915050565b6000620007bd600019846008026200079d565b1980831691505092915050565b6000620007d88383620007aa565b9150826002028217905092915050565b620007f3826200059d565b67ffffffffffffffff8111156200080f576200080e620001f3565b5b6200081b8254620005d7565b620008288282856200074d565b600060209050601f8311600181146200086057600084156200084b578287015190505b620008578582620007ca565b865550620008c7565b601f19841662000870866200060c565b60005b828110156200089a5784890151825560018201915060208501945060208101905062000873565b86831015620008ba5784890151620008b6601f891682620007aa565b8355505b6001600288020188555050505b505050505050565b61184080620008df6000396000f3fe6080604052600436106101145760003560e01c80638cf80438116100a0578063ddeb63b511610064578063ddeb63b51461037f578063dfbf53ae146103a8578063e967e60c146103d3578063f38532c2146103ef578063f896a3761461040657610114565b80638cf80438146102bc5780638da5cb5b146102e75780639a33e300146103125780639d9d3b2d1461033d578063d893b6d61461035457610114565b806318874da8116100e757806318874da8146101e95780634c396d3f1461021257806362ea82db1461023d578063723396b91461027a578063755f047b1461029157610114565b806306e6386f146101195780630849f31d146101565780630d5defa4146101815780630f3f02b2146101ac575b600080fd5b34801561012557600080fd5b50610140600480360381019061013b9190610f57565b610431565b60405161014d9190610f9f565b60405180910390f35b34801561016257600080fd5b5061016b610488565b6040516101789190610f9f565b60405180910390f35b34801561018d57600080fd5b5061019661049b565b6040516101a39190610fc9565b60405180910390f35b3480156101b857600080fd5b506101d360048036038101906101ce9190610f57565b6104c1565b6040516101e09190611074565b60405180910390f35b3480156101f557600080fd5b50610210600480360381019061020b91906110cc565b610561565b005b34801561021e57600080fd5b5061022761069a565b6040516102349190611074565b60405180910390f35b34801561024957600080fd5b50610264600480360381019061025f9190610f57565b610728565b6040516102719190611108565b60405180910390f35b34801561028657600080fd5b5061028f610740565b005b34801561029d57600080fd5b506102a661086d565b6040516102b39190611074565b60405180910390f35b3480156102c857600080fd5b506102d16108fb565b6040516102de9190611108565b60405180910390f35b3480156102f357600080fd5b506102fc610901565b6040516103099190610fc9565b60405180910390f35b34801561031e57600080fd5b50610327610925565b6040516103349190611074565b60405180910390f35b34801561034957600080fd5b506103526109b3565b005b34801561036057600080fd5b50610369610bc1565b6040516103769190610f9f565b60405180910390f35b34801561038b57600080fd5b506103a660048036038101906103a19190610f57565b610bd4565b005b3480156103b457600080fd5b506103bd610ca6565b6040516103ca9190610fc9565b60405180910390f35b6103ed60048036038101906103e89190611258565b610ccc565b005b3480156103fb57600080fd5b50610404610dab565b005b34801561041257600080fd5b5061041b610ed8565b60405161042891906112ba565b60405180910390f35b600080600660008473ffffffffffffffffffffffffffffffffffffffff1673ffffffffffffffffffffffffffffffffffffffff168152602001908152602001600020805461047e90611304565b9050119050919050565b600960009054906101000a900460ff1681565b600960029054906101000a900473ffffffffffffffffffffffffffffffffffffffff1681565b600660205280600052604060002060009150905080546104e090611304565b80601f016020809104026020016040519081016040528092919081815260200182805461050c90611304565b80156105595780601f1061052e57610100808354040283529160200191610559565b820191906000526020600020905b81548152906001019060200180831161053c57829003601f168201915b505050505081565b60001515600960009054906101000a900460ff161515146105b7576040517f08c379a00000000000000000000000000000000000000000000000000000000081526004016105ae90611381565b60405180910390fd5b80600760003373ffffffffffffffffffffffffffffffffffffffff1673ffffffffffffffffffffffffffffffffffffffff168152602001908152602001600020819055506008339080600181540180825580915050600190039060005260206000200160009091909190916101000a81548173ffffffffffffffffffffffffffffffffffffffff021916908373ffffffffffffffffffffffffffffffffffffffff1602179055507feff79c505d5e7b944e779e0e4dfaeca7eb1f161aaee4fc533691963ec86e70a5338260405161068f9291906113a1565b60405180910390a150565b600580546106a790611304565b80601f01602080910402602001604051908101604052809291908181526020018280546106d390611304565b80156107205780601f106106f557610100808354040283529160200191610720565b820191906000526020600020905b81548152906001019060200180831161070357829003601f168201915b505050505081565b60076020528060005260406000206000915090505481565b60008054906101000a900473ffffffffffffffffffffffffffffffffffffffff1673ffffffffffffffffffffffffffffffffffffffff163373ffffffffffffffffffffffffffffffffffffffff16146107ce576040517f08c379a00000000000000000000000000000000000000000000000000000000081526004016107c59061143c565b60405180910390fd5b60001515600960009054906101000a900460ff16151514610824576040517f08c379a000000000000000000000000000000000000000000000000000000000815260040161081b906114a8565b60405180910390fd5b6001600960006101000a81548160ff0219169083151502179055507f4cd156ab804e9e9d4ec1f6a25bcba9f82e357ceb26dbc50ef6c6140446736aaa60405160405180910390a1565b6004805461087a90611304565b80601f01602080910402602001604051908101604052809291908181526020018280546108a690611304565b80156108f35780601f106108c8576101008083540402835291602001916108f3565b820191906000526020600020905b8154815290600101906020018083116108d657829003601f168201915b505050505081565b60025481565b60008054906101000a900473ffffffffffffffffffffffffffffffffffffffff1681565b6003805461093290611304565b80601f016020809104026020016040519081016040528092919081815260200182805461095e90611304565b80156109ab5780601f10610980576101008083540402835291602001916109ab565b820191906000526020600020905b81548152906001019060200180831161098e57829003601f168201915b505050505081565b60008054906101000a900473ffffffffffffffffffffffffffffffffffffffff1673ffffffffffffffffffffffffffffffffffffffff163373ffffffffffffffffffffffffffffffffffffffff1614610a41576040517f08c379a0000000000000000000000000000000000000000000000000000000008152600401610a389061143c565b60405180910390fd5b60007f7fffffffffffffffffffffffffffffffffffffffffffffffffffffffffffffff9050600080600090505b600880549050811015610b2057600060088281548110610a9157610a906114c8565b5b9060005260206000200160009054906101000a900473ffffffffffffffffffffffffffffffffffffffff1690506000600760008373ffffffffffffffffffffffffffffffffffffffff1673ffffffffffffffffffffffffffffffffffffffff16815260200190815260200160002054905084811215610b11578094508193505b50508080600101915050610a6e565b5080600160006101000a81548173ffffffffffffffffffffffffffffffffffffffff021916908373ffffffffffffffffffffffffffffffffffffffff160217905550816002819055506001600960016101000a81548160ff0219169083151502179055507fb1ac22378f03bbcd6605ff5bcb60d231d67fb6ac00a4276b16f8bc25245d15778183604051610bb59291906113a1565b60405180910390a15050565b600960019054906101000a900460ff1681565b60008054906101000a900473ffffffffffffffffffffffffffffffffffffffff1673ffffffffffffffffffffffffffffffffffffffff163373ffffffffffffffffffffffffffffffffffffffff1614610c62576040517f08c379a0000000000000000000000000000000000000000000000000000000008152600401610c599061143c565b60405180910390fd5b80600960026101000a81548173ffffffffffffffffffffffffffffffffffffffff021916908373ffffffffffffffffffffffffffffffffffffffff16021790555050565b600160009054906101000a900473ffffffffffffffffffffffffffffffffffffffff1681565b60001515600960009054906101000a900460ff16151514610d22576040517f08c379a0000000000000000000000000000000000000000000000000000000008152600401610d1990611381565b60405180910390fd5b80600660003373ffffffffffffffffffffffffffffffffffffffff1673ffffffffffffffffffffffffffffffffffffffff1681526020019081526020016000209081610d6e91906116a3565b507f3fabff0a9c3ecd6814702e247fa9733e5d0aa69e3a38590f92cb18f623a2254d3334604051610da0929190611775565b60405180910390a150565b60008054906101000a900473ffffffffffffffffffffffffffffffffffffffff1673ffffffffffffffffffffffffffffffffffffffff163373ffffffffffffffffffffffffffffffffffffffff1614610e39576040517f08c379a0000000000000000000000000000000000000000000000000000000008152600401610e309061143c565b60405180910390fd5b60011515600960009054906101000a900460ff16151514610e8f576040517f08c379a0000000000000000000000000000000000000000000000000000000008152600401610e86906117ea565b60405180910390fd5b6000600960006101000a81548160ff0219169083151502179055507f7034ea9978f4090c95c8f1776993ff2ee9c27b04375c47885f33a2a1a6df4e8c60405160405180910390a1565b6000600880549050905090565b6000604051905090565b600080fd5b600080fd5b600073ffffffffffffffffffffffffffffffffffffffff82169050919050565b6000610f2482610ef9565b9050919050565b610f3481610f19565b8114610f3f57600080fd5b50565b600081359050610f5181610f2b565b92915050565b600060208284031215610f6d57610f6c610eef565b5b6000610f7b84828501610f42565b91505092915050565b60008115159050919050565b610f9981610f84565b82525050565b6000602082019050610fb46000830184610f90565b92915050565b610fc381610f19565b82525050565b6000602082019050610fde6000830184610fba565b92915050565b600081519050919050565b600082825260208201905092915050565b60005b8381101561101e578082015181840152602081019050611003565b60008484015250505050565b6000601f19601f8301169050919050565b600061104682610fe4565b6110508185610fef565b9350611060818560208601611000565b6110698161102a565b840191505092915050565b6000602082019050818103600083015261108e818461103b565b905092915050565b6000819050919050565b6110a981611096565b81146110b457600080fd5b50565b6000813590506110c6816110a0565b92915050565b6000602082840312156110e2576110e1610eef565b5b60006110f0848285016110b7565b91505092915050565b61110281611096565b82525050565b600060208201905061111d60008301846110f9565b92915050565b600080fd5b600080fd5b7f4e487b7100000000000000000000000000000000000000000000000000000000600052604160045260246000fd5b6111658261102a565b810181811067ffffffffffffffff821117156111845761118361112d565b5b80604052505050565b6000611197610ee5565b90506111a3828261115c565b919050565b600067ffffffffffffffff8211156111c3576111c261112d565b5b6111cc8261102a565b9050602081019050919050565b82818337600083830152505050565b60006111fb6111f6846111a8565b61118d565b90508281526020810184848401111561121757611216611128565b5b6112228482856111d9565b509392505050565b600082601f83011261123f5761123e611123565b5b813561124f8482602086016111e8565b91505092915050565b60006020828403121561126e5761126d610eef565b5b600082013567ffffffffffffffff81111561128c5761128b610ef4565b5b6112988482850161122a565b91505092915050565b6000819050919050565b6112b4816112a1565b82525050565b60006020820190506112cf60008301846112ab565b92915050565b7f4e487b7100000000000000000000000000000000000000000000000000000000600052602260045260246000fd5b6000600282049050600182168061131c57607f821691505b60208210810361132f5761132e6112d5565b5b50919050565b7f42696464696e672069732063757272656e746c79207061757365640000000000600082015250565b600061136b601b83610fef565b915061137682611335565b602082019050919050565b6000602082019050818103600083015261139a8161135e565b9050919050565b60006040820190506113b66000830185610fba565b6113c360208301846110f9565b9392505050565b7f4f6e6c79206f776e65722063616e2063616c6c20746869732066756e6374696f60008201527f6e00000000000000000000000000000000000000000000000000000000000000602082015250565b6000611426602183610fef565b9150611431826113ca565b604082019050919050565b6000602082019050818103600083015261145581611419565b9050919050565b7f42696464696e6720697320616c72656164792070617573656400000000000000600082015250565b6000611492601983610fef565b915061149d8261145c565b602082019050919050565b600060208201905081810360008301526114c181611485565b9050919050565b7f4e487b7100000000000000000000000000000000000000000000000000000000600052603260045260246000fd5b60008190508160005260206000209050919050565b60006020601f8301049050919050565b600082821b905092915050565b6000600883026115597fffffffffffffffffffffffffffffffffffffffffffffffffffffffffffffffff8261151c565b611563868361151c565b95508019841693508086168417925050509392505050565b6000819050919050565b60006115a061159b611596846112a1565b61157b565b6112a1565b9050919050565b6000819050919050565b6115ba83611585565b6115ce6115c6826115a7565b848454611529565b825550505050565b600090565b6115e36115d6565b6115ee8184846115b1565b505050565b5b81811015611612576116076000826115db565b6001810190506115f4565b5050565b601f82111561165757611628816114f7565b6116318461150c565b81016020851015611640578190505b61165461164c8561150c565b8301826115f3565b50505b505050565b600082821c905092915050565b600061167a6000198460080261165c565b1980831691505092915050565b60006116938383611669565b9150826002028217905092915050565b6116ac82610fe4565b67ffffffffffffffff8111156116c5576116c461112d565b5b6116cf8254611304565b6116da828285611616565b600060209050601f83116001811461170d57600084156116fb578287015190505b6117058582611687565b86555061176d565b601f19841661171b866114f7565b60005b828110156117435784890151825560018201915060208501945060208101905061171e565b86831015611760578489015161175c601f891682611669565b8355505b6001600288020188555050505b505050505050565b600060408201905061178a6000830185610fba565b61179760208301846112ab565b9392505050565b7f42696464696e67206973206e6f74207061757365640000000000000000000000600082015250565b60006117d4601583610fef565b91506117df8261179e565b602082019050919050565b60006020820190508181036000830152611803816117c7565b905091905056fea264697066735822122036b4a44016e19dd43cdd49f00a2ff5bc2b32c509cdce68bba1641968c9cab65064736f6c63430008180033",
  "linkReferences": {},
  "deployedLinkReferences": {}
}