{
  "_format": "hh-sol-artifact-1",
  "contractName": "Bidding",
  "sourceName": "contracts/bidding.sol",
  "abi": [
    {
      "inputs": [
        {
          "internalType": "string",
          "name": "_projectName",
          "type": "string"
        },
        {
          "internalType": "string",
          "name": "_projectDescription",
          "type": "string"
        },
        {
          "internalType": "string",
          "name": "_projectMetrics",
          "type": "string"
        }
      ],
      "stateMutability": "nonpayable",
      "type": "constructor"
    },
    {
      "anonymous": false,
      "inputs": [
        {
          "indexed": false,
          "internalType": "address",
          "name": "bidder",
          "type": "address"
        },
        {
          "indexed": false,
          "internalType": "uint256",
          "name": "bidAmount",
          "type": "uint256"
        }
      ],
      "name": "BidPlaced",
      "type": "event"
    },
    {
      "anonymous": false,
      "inputs": [
        {
          "indexed": false,
          "internalType": "address",
          "name": "bidder",
          "type": "address"
        },
        {
          "indexed": false,
          "internalType": "int256",
          "name": "bidAmount",
          "type": "int256"
        }
      ],
      "name": "BidRevealed",
      "type": "event"
    },
    {
      "anonymous": false,
      "inputs": [],
      "name": "BiddingPaused",
      "type": "event"
    },
    {
      "anonymous": false,
      "inputs": [],
      "name": "BiddingResumed",
      "type": "event"
    },
    {
      "anonymous": false,
      "inputs": [
        {
          "indexed": false,
          "internalType": "address",
          "name": "winner",
          "type": "address"
        },
        {
          "indexed": false,
          "internalType": "int256",
          "name": "winningBid",
          "type": "int256"
        }
      ],
      "name": "WinnerComputed",
      "type": "event"
    },
    {
      "inputs": [],
      "name": "biddingPaused",
      "outputs": [
        {
          "internalType": "bool",
          "name": "",
          "type": "bool"
        }
      ],
      "stateMutability": "view",
      "type": "function"
    },
    {
      "inputs": [
        {
          "internalType": "address",
          "name": "",
          "type": "address"
        }
      ],
      "name": "bids",
      "outputs": [
        {
          "internalType": "int256",
          "name": "",
          "type": "int256"
        }
      ],
      "stateMutability": "view",
      "type": "function"
    },
    {
      "inputs": [],
      "name": "computeWinner",
      "outputs": [],
      "stateMutability": "nonpayable",
      "type": "function"
    },
    {
      "inputs": [
        {
          "internalType": "address",
          "name": "",
          "type": "address"
        }
      ],
      "name": "encryptedBids",
      "outputs": [
        {
          "internalType": "string",
          "name": "",
          "type": "string"
        }
      ],
      "stateMutability": "view",
      "type": "function"
    },
    {
      "inputs": [],
      "name": "getNumBidsPlaced",
      "outputs": [
        {
          "internalType": "uint256",
          "name": "",
          "type": "uint256"
        }
      ],
      "stateMutability": "view",
      "type": "function"
    },
    {
      "inputs": [
        {
          "internalType": "address",
          "name": "bidder",
          "type": "address"
        }
      ],
      "name": "hasPlacedBid",
      "outputs": [
        {
          "internalType": "bool",
          "name": "",
          "type": "bool"
        }
      ],
      "stateMutability": "view",
      "type": "function"
    },
    {
      "inputs": [],
      "name": "owner",
      "outputs": [
        {
          "internalType": "address",
          "name": "",
          "type": "address"
        }
      ],
      "stateMutability": "view",
      "type": "function"
    },
    {
      "inputs": [],
      "name": "pauseBidding",
      "outputs": [],
      "stateMutability": "nonpayable",
      "type": "function"
    },
    {
      "inputs": [
        {
          "internalType": "string",
          "name": "encryptedBid",
          "type": "string"
        }
      ],
      "name": "placeBid",
      "outputs": [],
      "stateMutability": "payable",
      "type": "function"
    },
    {
      "inputs": [],
      "name": "projectDescription",
      "outputs": [
        {
          "internalType": "string",
          "name": "",
          "type": "string"
        }
      ],
      "stateMutability": "view",
      "type": "function"
    },
    {
      "inputs": [],
      "name": "projectMetrics",
      "outputs": [
        {
          "internalType": "string",
          "name": "",
          "type": "string"
        }
      ],
      "stateMutability": "view",
      "type": "function"
    },
    {
      "inputs": [],
      "name": "projectName",
      "outputs": [
        {
          "internalType": "string",
          "name": "",
          "type": "string"
        }
      ],
      "stateMutability": "view",
      "type": "function"
    },
    {
      "inputs": [],
      "name": "resumeBidding",
      "outputs": [],
      "stateMutability": "nonpayable",
      "type": "function"
    },
    {
      "inputs": [
        {
          "internalType": "int256",
          "name": "bidAmount",
          "type": "int256"
        }
      ],
      "name": "revealBid",
      "outputs": [],
      "stateMutability": "nonpayable",
      "type": "function"
    },
    {
      "inputs": [],
      "name": "winner",
      "outputs": [
        {
          "internalType": "address",
          "name": "",
          "type": "address"
        }
      ],
      "stateMutability": "view",
      "type": "function"
    },
    {
      "inputs": [],
      "name": "winnerCalculated",
      "outputs": [
        {
          "internalType": "bool",
          "name": "",
          "type": "bool"
        }
      ],
      "stateMutability": "view",
      "type": "function"
    },
    {
      "inputs": [],
      "name": "winningBid",
      "outputs": [
        {
          "internalType": "int256",
          "name": "",
          "type": "int256"
        }
      ],
      "stateMutability": "view",
      "type": "function"
    }
  ],
  "bytecode": "0x60806040523480156200001157600080fd5b506040516200207238038062002072833981810160405281019062000037919062000357565b6005835110156200007f576040517f08c379a0000000000000000000000000000000000000000000000000000000008152600401620000769062000471565b60405180910390fd5b601e82511015620000c7576040517f08c379a0000000000000000000000000000000000000000000000000000000008152600401620000be9062000509565b60405180910390fd5b6032815110156200010f576040517f08c379a000000000000000000000000000000000000000000000000000000000815260040162000106906200057b565b60405180910390fd5b336000806101000a81548173ffffffffffffffffffffffffffffffffffffffff021916908373ffffffffffffffffffffffffffffffffffffffff1602179055508260039081620001609190620007e8565b508160049081620001729190620007e8565b508060059081620001849190620007e8565b506000600960006101000a81548160ff0219169083151502179055506000600960016101000a81548160ff021916908315150217905550505050620008cf565b6000604051905090565b600080fd5b600080fd5b600080fd5b600080fd5b6000601f19601f8301169050919050565b7f4e487b7100000000000000000000000000000000000000000000000000000000600052604160045260246000fd5b6200022d82620001e2565b810181811067ffffffffffffffff821117156200024f576200024e620001f3565b5b80604052505050565b600062000264620001c4565b905062000272828262000222565b919050565b600067ffffffffffffffff821115620002955762000294620001f3565b5b620002a082620001e2565b9050602081019050919050565b60005b83811015620002cd578082015181840152602081019050620002b0565b60008484015250505050565b6000620002f0620002ea8462000277565b62000258565b9050828152602081018484840111156200030f576200030e620001dd565b5b6200031c848285620002ad565b509392505050565b600082601f8301126200033c576200033b620001d8565b5b81516200034e848260208601620002d9565b91505092915050565b600080600060608486031215620003735762000372620001ce565b5b600084015167ffffffffffffffff811115620003945762000393620001d3565b5b620003a28682870162000324565b935050602084015167ffffffffffffffff811115620003c657620003c5620001d3565b5b620003d48682870162000324565b925050604084015167ffffffffffffffff811115620003f857620003f7620001d3565b5b620004068682870162000324565b9150509250925092565b600082825260208201905092915050565b7f50726f6a656374206e616d652063616e6e6f7420626520656d70747900000000600082015250565b600062000459601c8362000410565b9150620004668262000421565b602082019050919050565b600060208201905081810360008301526200048c816200044a565b9050919050565b7f50726f6a656374206465736372697074696f6e2063616e6e6f7420626520656d60008201527f7074790000000000000000000000000000000000000000000000000000000000602082015250565b6000620004f160238362000410565b9150620004fe8262000493565b604082019050919050565b600060208201905081810360008301526200052481620004e2565b9050919050565b7f50726f6a656374206d6574726963732063616e6e6f7420626520656d70747900600082015250565b600062000563601f8362000410565b915062000570826200052b565b602082019050919050565b60006020820190508181036000830152620005968162000554565b9050919050565b600081519050919050565b7f4e487b7100000000000000000000000000000000000000000000000000000000600052602260045260246000fd5b60006002820490506001821680620005f057607f821691505b602082108103620006065762000605620005a8565b5b50919050565b60008190508160005260206000209050919050565b60006020601f8301049050919050565b600082821b905092915050565b600060088302620006707fffffffffffffffffffffffffffffffffffffffffffffffffffffffffffffffff8262000631565b6200067c868362000631565b95508019841693508086168417925050509392505050565b6000819050919050565b6000819050919050565b6000620006c9620006c3620006bd8462000694565b6200069e565b62000694565b9050919050565b6000819050919050565b620006e583620006a8565b620006fd620006f482620006d0565b8484546200063e565b825550505050565b600090565b6200071462000705565b62000721818484620006da565b505050565b5b8181101562000749576200073d6000826200070a565b60018101905062000727565b5050565b601f821115620007985762000762816200060c565b6200076d8462000621565b810160208510156200077d578190505b620007956200078c8562000621565b83018262000726565b50505b505050565b600082821c905092915050565b6000620007bd600019846008026200079d565b1980831691505092915050565b6000620007d88383620007aa565b9150826002028217905092915050565b620007f3826200059d565b67ffffffffffffffff8111156200080f576200080e620001f3565b5b6200081b8254620005d7565b620008288282856200074d565b600060209050601f8311600181146200086057600084156200084b578287015190505b620008578582620007ca565b865550620008c7565b601f19841662000870866200060c565b60005b828110156200089a5784890151825560018201915060208501945060208101905062000873565b86831015620008ba5784890151620008b6601f891682620007aa565b8355505b6001600288020188555050505b505050505050565b61179380620008df6000396000f3fe6080604052600436106100fe5760003560e01c80638cf8043811610095578063d893b6d611610064578063d893b6d614610313578063dfbf53ae1461033e578063e967e60c14610369578063f38532c214610385578063f896a3761461039c576100fe565b80638cf804381461027b5780638da5cb5b146102a65780639a33e300146102d15780639d9d3b2d146102fc576100fe565b80634c396d3f116100d15780634c396d3f146101d157806362ea82db146101fc578063723396b914610239578063755f047b14610250576100fe565b806306e6386f146101035780630849f31d146101405780630f3f02b21461016b57806318874da8146101a8575b600080fd5b34801561010f57600080fd5b5061012a60048036038101906101259190610e3e565b6103c7565b6040516101379190610e86565b60405180910390f35b34801561014c57600080fd5b5061015561041e565b6040516101629190610e86565b60405180910390f35b34801561017757600080fd5b50610192600480360381019061018d9190610e3e565b610431565b60405161019f9190610f31565b60405180910390f35b3480156101b457600080fd5b506101cf60048036038101906101ca9190610f89565b6104d1565b005b3480156101dd57600080fd5b506101e661060a565b6040516101f39190610f31565b60405180910390f35b34801561020857600080fd5b50610223600480360381019061021e9190610e3e565b610698565b6040516102309190610fc5565b60405180910390f35b34801561024557600080fd5b5061024e6106b0565b005b34801561025c57600080fd5b506102656107dd565b6040516102729190610f31565b60405180910390f35b34801561028757600080fd5b5061029061086b565b60405161029d9190610fc5565b60405180910390f35b3480156102b257600080fd5b506102bb610871565b6040516102c89190610fef565b60405180910390f35b3480156102dd57600080fd5b506102e6610895565b6040516102f39190610f31565b60405180910390f35b34801561030857600080fd5b50610311610923565b005b34801561031f57600080fd5b50610328610b7a565b6040516103359190610e86565b60405180910390f35b34801561034a57600080fd5b50610353610b8d565b6040516103609190610fef565b60405180910390f35b610383600480360381019061037e919061113f565b610bb3565b005b34801561039157600080fd5b5061039a610c92565b005b3480156103a857600080fd5b506103b1610dbf565b6040516103be91906111a1565b60405180910390f35b600080600660008473ffffffffffffffffffffffffffffffffffffffff1673ffffffffffffffffffffffffffffffffffffffff1681526020019081526020016000208054610414906111eb565b9050119050919050565b600960009054906101000a900460ff1681565b60066020528060005260406000206000915090508054610450906111eb565b80601f016020809104026020016040519081016040528092919081815260200182805461047c906111eb565b80156104c95780601f1061049e576101008083540402835291602001916104c9565b820191906000526020600020905b8154815290600101906020018083116104ac57829003601f168201915b505050505081565b60001515600960009054906101000a900460ff16151514610527576040517f08c379a000000000000000000000000000000000000000000000000000000000815260040161051e90611268565b60405180910390fd5b80600760003373ffffffffffffffffffffffffffffffffffffffff1673ffffffffffffffffffffffffffffffffffffffff168152602001908152602001600020819055506008339080600181540180825580915050600190039060005260206000200160009091909190916101000a81548173ffffffffffffffffffffffffffffffffffffffff021916908373ffffffffffffffffffffffffffffffffffffffff1602179055507feff79c505d5e7b944e779e0e4dfaeca7eb1f161aaee4fc533691963ec86e70a533826040516105ff929190611288565b60405180910390a150565b60058054610617906111eb565b80601f0160208091040260200160405190810160405280929190818152602001828054610643906111eb565b80156106905780601f1061066557610100808354040283529160200191610690565b820191906000526020600020905b81548152906001019060200180831161067357829003601f168201915b505050505081565b60076020528060005260406000206000915090505481565b60008054906101000a900473ffffffffffffffffffffffffffffffffffffffff1673ffffffffffffffffffffffffffffffffffffffff163373ffffffffffffffffffffffffffffffffffffffff161461073e576040517f08c379a000000000000000000000000000000000000000000000000000000000815260040161073590611323565b60405180910390fd5b60001515600960009054906101000a900460ff16151514610794576040517f08c379a000000000000000000000000000000000000000000000000000000000815260040161078b9061138f565b60405180910390fd5b6001600960006101000a81548160ff0219169083151502179055507f4cd156ab804e9e9d4ec1f6a25bcba9f82e357ceb26dbc50ef6c6140446736aaa60405160405180910390a1565b600480546107ea906111eb565b80601f0160208091040260200160405190810160405280929190818152602001828054610816906111eb565b80156108635780601f1061083857610100808354040283529160200191610863565b820191906000526020600020905b81548152906001019060200180831161084657829003601f168201915b505050505081565b60025481565b60008054906101000a900473ffffffffffffffffffffffffffffffffffffffff1681565b600380546108a2906111eb565b80601f01602080910402602001604051908101604052809291908181526020018280546108ce906111eb565b801561091b5780601f106108f05761010080835404028352916020019161091b565b820191906000526020600020905b8154815290600101906020018083116108fe57829003601f168201915b505050505081565b60008054906101000a900473ffffffffffffffffffffffffffffffffffffffff1673ffffffffffffffffffffffffffffffffffffffff163373ffffffffffffffffffffffffffffffffffffffff16146109b1576040517f08c379a00000000000000000000000000000000000000000000000000000000081526004016109a890611323565b60405180910390fd5b600360088054905010156109fa576040517f08c379a00000000000000000000000000000000000000000000000000000000081526004016109f1906113fb565b60405180910390fd5b60007f7fffffffffffffffffffffffffffffffffffffffffffffffffffffffffffffff9050600080600090505b600880549050811015610ad957600060088281548110610a4a57610a4961141b565b5b9060005260206000200160009054906101000a900473ffffffffffffffffffffffffffffffffffffffff1690506000600760008373ffffffffffffffffffffffffffffffffffffffff1673ffffffffffffffffffffffffffffffffffffffff16815260200190815260200160002054905084811215610aca578094508193505b50508080600101915050610a27565b5080600160006101000a81548173ffffffffffffffffffffffffffffffffffffffff021916908373ffffffffffffffffffffffffffffffffffffffff160217905550816002819055506001600960016101000a81548160ff0219169083151502179055507fb1ac22378f03bbcd6605ff5bcb60d231d67fb6ac00a4276b16f8bc25245d15778183604051610b6e929190611288565b60405180910390a15050565b600960019054906101000a900460ff1681565b600160009054906101000a900473ffffffffffffffffffffffffffffffffffffffff1681565b60001515600960009054906101000a900460ff16151514610c09576040517f08c379a0000000000000000000000000000000000000000000000000000000008152600401610c0090611268565b60405180910390fd5b80600660003373ffffffffffffffffffffffffffffffffffffffff1673ffffffffffffffffffffffffffffffffffffffff1681526020019081526020016000209081610c5591906115f6565b507f3fabff0a9c3ecd6814702e247fa9733e5d0aa69e3a38590f92cb18f623a2254d3334604051610c879291906116c8565b60405180910390a150565b60008054906101000a900473ffffffffffffffffffffffffffffffffffffffff1673ffffffffffffffffffffffffffffffffffffffff163373ffffffffffffffffffffffffffffffffffffffff1614610d20576040517f08c379a0000000000000000000000000000000000000000000000000000000008152600401610d1790611323565b60405180910390fd5b60011515600960009054906101000a900460ff16151514610d76576040517f08c379a0000000000000000000000000000000000000000000000000000000008152600401610d6d9061173d565b60405180910390fd5b6000600960006101000a81548160ff0219169083151502179055507f7034ea9978f4090c95c8f1776993ff2ee9c27b04375c47885f33a2a1a6df4e8c60405160405180910390a1565b6000600880549050905090565b6000604051905090565b600080fd5b600080fd5b600073ffffffffffffffffffffffffffffffffffffffff82169050919050565b6000610e0b82610de0565b9050919050565b610e1b81610e00565b8114610e2657600080fd5b50565b600081359050610e3881610e12565b92915050565b600060208284031215610e5457610e53610dd6565b5b6000610e6284828501610e29565b91505092915050565b60008115159050919050565b610e8081610e6b565b82525050565b6000602082019050610e9b6000830184610e77565b92915050565b600081519050919050565b600082825260208201905092915050565b60005b83811015610edb578082015181840152602081019050610ec0565b60008484015250505050565b6000601f19601f8301169050919050565b6000610f0382610ea1565b610f0d8185610eac565b9350610f1d818560208601610ebd565b610f2681610ee7565b840191505092915050565b60006020820190508181036000830152610f4b8184610ef8565b905092915050565b6000819050919050565b610f6681610f53565b8114610f7157600080fd5b50565b600081359050610f8381610f5d565b92915050565b600060208284031215610f9f57610f9e610dd6565b5b6000610fad84828501610f74565b91505092915050565b610fbf81610f53565b82525050565b6000602082019050610fda6000830184610fb6565b92915050565b610fe981610e00565b82525050565b60006020820190506110046000830184610fe0565b92915050565b600080fd5b600080fd5b7f4e487b7100000000000000000000000000000000000000000000000000000000600052604160045260246000fd5b61104c82610ee7565b810181811067ffffffffffffffff8211171561106b5761106a611014565b5b80604052505050565b600061107e610dcc565b905061108a8282611043565b919050565b600067ffffffffffffffff8211156110aa576110a9611014565b5b6110b382610ee7565b9050602081019050919050565b82818337600083830152505050565b60006110e26110dd8461108f565b611074565b9050828152602081018484840111156110fe576110fd61100f565b5b6111098482856110c0565b509392505050565b600082601f8301126111265761112561100a565b5b81356111368482602086016110cf565b91505092915050565b60006020828403121561115557611154610dd6565b5b600082013567ffffffffffffffff81111561117357611172610ddb565b5b61117f84828501611111565b91505092915050565b6000819050919050565b61119b81611188565b82525050565b60006020820190506111b66000830184611192565b92915050565b7f4e487b7100000000000000000000000000000000000000000000000000000000600052602260045260246000fd5b6000600282049050600182168061120357607f821691505b602082108103611216576112156111bc565b5b50919050565b7f42696464696e672069732063757272656e746c79207061757365640000000000600082015250565b6000611252601b83610eac565b915061125d8261121c565b602082019050919050565b6000602082019050818103600083015261128181611245565b9050919050565b600060408201905061129d6000830185610fe0565b6112aa6020830184610fb6565b9392505050565b7f4f6e6c79206f776e65722063616e2063616c6c20746869732066756e6374696f60008201527f6e00000000000000000000000000000000000000000000000000000000000000602082015250565b600061130d602183610eac565b9150611318826112b1565b604082019050919050565b6000602082019050818103600083015261133c81611300565b9050919050565b7f42696464696e6720697320616c72656164792070617573656400000000000000600082015250565b6000611379601983610eac565b915061138482611343565b602082019050919050565b600060208201905081810360008301526113a88161136c565b9050919050565b7f4174206c65617374203320626964646572732072657175697265640000000000600082015250565b60006113e5601b83610eac565b91506113f0826113af565b602082019050919050565b60006020820190508181036000830152611414816113d8565b9050919050565b7f4e487b7100000000000000000000000000000000000000000000000000000000600052603260045260246000fd5b60008190508160005260206000209050919050565b60006020601f8301049050919050565b600082821b905092915050565b6000600883026114ac7fffffffffffffffffffffffffffffffffffffffffffffffffffffffffffffffff8261146f565b6114b6868361146f565b95508019841693508086168417925050509392505050565b6000819050919050565b60006114f36114ee6114e984611188565b6114ce565b611188565b9050919050565b6000819050919050565b61150d836114d8565b611521611519826114fa565b84845461147c565b825550505050565b600090565b611536611529565b611541818484611504565b505050565b5b818110156115655761155a60008261152e565b600181019050611547565b5050565b601f8211156115aa5761157b8161144a565b6115848461145f565b81016020851015611593578190505b6115a761159f8561145f565b830182611546565b50505b505050565b600082821c905092915050565b60006115cd600019846008026115af565b1980831691505092915050565b60006115e683836115bc565b9150826002028217905092915050565b6115ff82610ea1565b67ffffffffffffffff81111561161857611617611014565b5b61162282546111eb565b61162d828285611569565b600060209050601f831160018114611660576000841561164e578287015190505b61165885826115da565b8655506116c0565b601f19841661166e8661144a565b60005b8281101561169657848901518255600182019150602085019450602081019050611671565b868310156116b357848901516116af601f8916826115bc565b8355505b6001600288020188555050505b505050505050565b60006040820190506116dd6000830185610fe0565b6116ea6020830184611192565b9392505050565b7f42696464696e67206973206e6f74207061757365640000000000000000000000600082015250565b6000611727601583610eac565b9150611732826116f1565b602082019050919050565b600060208201905081810360008301526117568161171a565b905091905056fea26469706673582212203f3e803e8cf084138009993dc76cc7c0d8bb80993adfbbb59e9e34fe6827663664736f6c63430008180033",
  "linkReferences": {},
  "deployedLinkReferences": {}
}