{
  "_format": "hh-sol-artifact-1",
  "contractName": "Bidding",
  "sourceName": "contracts/bidding.sol",
  "abi": [
    {
      "inputs": [
        {
          "internalType": "string",
          "name": "_projectName",
          "type": "string"
        },
        {
          "internalType": "string",
          "name": "_projectDescription",
          "type": "string"
        },
        {
          "internalType": "string",
          "name": "_projectMetrics",
          "type": "string"
        }
      ],
      "stateMutability": "nonpayable",
      "type": "constructor"
    },
    {
      "anonymous": false,
      "inputs": [
        {
          "indexed": false,
          "internalType": "address",
          "name": "bidder",
          "type": "address"
        },
        {
          "indexed": false,
          "internalType": "uint256",
          "name": "bidAmount",
          "type": "uint256"
        }
      ],
      "name": "BidPlaced",
      "type": "event"
    },
    {
      "anonymous": false,
      "inputs": [
        {
          "indexed": false,
          "internalType": "address",
          "name": "bidder",
          "type": "address"
        },
        {
          "indexed": false,
          "internalType": "int256",
          "name": "bidAmount",
          "type": "int256"
        }
      ],
      "name": "BidRevealed",
      "type": "event"
    },
    {
      "anonymous": false,
      "inputs": [],
      "name": "BiddingPaused",
      "type": "event"
    },
    {
      "anonymous": false,
      "inputs": [],
      "name": "BiddingResumed",
      "type": "event"
    },
    {
      "anonymous": false,
      "inputs": [
        {
          "indexed": false,
          "internalType": "address",
          "name": "winner",
          "type": "address"
        },
        {
          "indexed": false,
          "internalType": "int256",
          "name": "winningBid",
          "type": "int256"
        }
      ],
      "name": "WinnerComputed",
      "type": "event"
    },
    {
      "inputs": [
        {
          "internalType": "address",
          "name": "",
          "type": "address"
        }
      ],
      "name": "bids",
      "outputs": [
        {
          "internalType": "int256",
          "name": "",
          "type": "int256"
        }
      ],
      "stateMutability": "view",
      "type": "function"
    },
    {
      "inputs": [],
      "name": "computeWinner",
      "outputs": [],
      "stateMutability": "nonpayable",
      "type": "function"
    },
    {
      "inputs": [
        {
          "internalType": "address",
          "name": "",
          "type": "address"
        }
      ],
      "name": "encryptedBids",
      "outputs": [
        {
          "internalType": "string",
          "name": "",
          "type": "string"
        }
      ],
      "stateMutability": "view",
      "type": "function"
    },
    {
      "inputs": [
        {
          "internalType": "address",
          "name": "bidder",
          "type": "address"
        }
      ],
      "name": "hasPlacedBid",
      "outputs": [
        {
          "internalType": "bool",
          "name": "",
          "type": "bool"
        }
      ],
      "stateMutability": "view",
      "type": "function"
    },
    {
      "inputs": [],
      "name": "pauseBidding",
      "outputs": [],
      "stateMutability": "nonpayable",
      "type": "function"
    },
    {
      "inputs": [
        {
          "internalType": "string",
          "name": "encryptedBid",
          "type": "string"
        }
      ],
      "name": "placeBid",
      "outputs": [],
      "stateMutability": "payable",
      "type": "function"
    },
    {
      "inputs": [],
      "name": "projectDescription",
      "outputs": [
        {
          "internalType": "string",
          "name": "",
          "type": "string"
        }
      ],
      "stateMutability": "view",
      "type": "function"
    },
    {
      "inputs": [],
      "name": "projectMetrics",
      "outputs": [
        {
          "internalType": "string",
          "name": "",
          "type": "string"
        }
      ],
      "stateMutability": "view",
      "type": "function"
    },
    {
      "inputs": [],
      "name": "projectName",
      "outputs": [
        {
          "internalType": "string",
          "name": "",
          "type": "string"
        }
      ],
      "stateMutability": "view",
      "type": "function"
    },
    {
      "inputs": [],
      "name": "resumeBidding",
      "outputs": [],
      "stateMutability": "nonpayable",
      "type": "function"
    },
    {
      "inputs": [
        {
          "internalType": "int256",
          "name": "bidAmount",
          "type": "int256"
        }
      ],
      "name": "revealBid",
      "outputs": [],
      "stateMutability": "nonpayable",
      "type": "function"
    },
    {
      "inputs": [
        {
          "internalType": "bytes",
          "name": "data",
          "type": "bytes"
        }
      ],
      "name": "toString",
      "outputs": [
        {
          "internalType": "string",
          "name": "",
          "type": "string"
        }
      ],
      "stateMutability": "pure",
      "type": "function"
    }
  ],
  "bytecode": "0x60806040523480156200001157600080fd5b5060405162001ec438038062001ec483398181016040528101906200003791906200033c565b6005835110156200007f576040517f08c379a0000000000000000000000000000000000000000000000000000000008152600401620000769062000456565b60405180910390fd5b601e82511015620000c7576040517f08c379a0000000000000000000000000000000000000000000000000000000008152600401620000be90620004ee565b60405180910390fd5b6032815110156200010f576040517f08c379a0000000000000000000000000000000000000000000000000000000008152600401620001069062000560565b60405180910390fd5b336000806101000a81548173ffffffffffffffffffffffffffffffffffffffff021916908373ffffffffffffffffffffffffffffffffffffffff1602179055508260039081620001609190620007cd565b508160049081620001729190620007cd565b508060059081620001849190620007cd565b506000600960006101000a81548160ff021916908315150217905550505050620008b4565b6000604051905090565b600080fd5b600080fd5b600080fd5b600080fd5b6000601f19601f8301169050919050565b7f4e487b7100000000000000000000000000000000000000000000000000000000600052604160045260246000fd5b6200021282620001c7565b810181811067ffffffffffffffff82111715620002345762000233620001d8565b5b80604052505050565b600062000249620001a9565b905062000257828262000207565b919050565b600067ffffffffffffffff8211156200027a5762000279620001d8565b5b6200028582620001c7565b9050602081019050919050565b60005b83811015620002b257808201518184015260208101905062000295565b60008484015250505050565b6000620002d5620002cf846200025c565b6200023d565b905082815260208101848484011115620002f457620002f3620001c2565b5b6200030184828562000292565b509392505050565b600082601f830112620003215762000320620001bd565b5b815162000333848260208601620002be565b91505092915050565b600080600060608486031215620003585762000357620001b3565b5b600084015167ffffffffffffffff811115620003795762000378620001b8565b5b620003878682870162000309565b935050602084015167ffffffffffffffff811115620003ab57620003aa620001b8565b5b620003b98682870162000309565b925050604084015167ffffffffffffffff811115620003dd57620003dc620001b8565b5b620003eb8682870162000309565b9150509250925092565b600082825260208201905092915050565b7f50726f6a656374206e616d652063616e6e6f7420626520656d70747900000000600082015250565b60006200043e601c83620003f5565b91506200044b8262000406565b602082019050919050565b6000602082019050818103600083015262000471816200042f565b9050919050565b7f50726f6a656374206465736372697074696f6e2063616e6e6f7420626520656d60008201527f7074790000000000000000000000000000000000000000000000000000000000602082015250565b6000620004d6602383620003f5565b9150620004e38262000478565b604082019050919050565b600060208201905081810360008301526200050981620004c7565b9050919050565b7f50726f6a656374206d6574726963732063616e6e6f7420626520656d70747900600082015250565b600062000548601f83620003f5565b9150620005558262000510565b602082019050919050565b600060208201905081810360008301526200057b8162000539565b9050919050565b600081519050919050565b7f4e487b7100000000000000000000000000000000000000000000000000000000600052602260045260246000fd5b60006002820490506001821680620005d557607f821691505b602082108103620005eb57620005ea6200058d565b5b50919050565b60008190508160005260206000209050919050565b60006020601f8301049050919050565b600082821b905092915050565b600060088302620006557fffffffffffffffffffffffffffffffffffffffffffffffffffffffffffffffff8262000616565b62000661868362000616565b95508019841693508086168417925050509392505050565b6000819050919050565b6000819050919050565b6000620006ae620006a8620006a28462000679565b62000683565b62000679565b9050919050565b6000819050919050565b620006ca836200068d565b620006e2620006d982620006b5565b84845462000623565b825550505050565b600090565b620006f9620006ea565b62000706818484620006bf565b505050565b5b818110156200072e5762000722600082620006ef565b6001810190506200070c565b5050565b601f8211156200077d576200074781620005f1565b620007528462000606565b8101602085101562000762578190505b6200077a620007718562000606565b8301826200070b565b50505b505050565b600082821c905092915050565b6000620007a26000198460080262000782565b1980831691505092915050565b6000620007bd83836200078f565b9150826002028217905092915050565b620007d88262000582565b67ffffffffffffffff811115620007f457620007f3620001d8565b5b620008008254620005bc565b6200080d82828562000732565b600060209050601f83116001811462000845576000841562000830578287015190505b6200083c8582620007af565b865550620008ac565b601f1984166200085586620005f1565b60005b828110156200087f5784890151825560018201915060208501945060208101905062000858565b868310156200089f57848901516200089b601f8916826200078f565b8355505b6001600288020188555050505b505050505050565b61160080620008c46000396000f3fe6080604052600436106100a75760003560e01c8063723396b911610064578063723396b9146101f4578063755f047b1461020b5780639a33e300146102365780639d9d3b2d14610261578063e967e60c14610278578063f38532c214610294576100a7565b806306e6386f146100ac5780630f3f02b2146100e957806318874da8146101265780634c396d3f1461014f57806362ea82db1461017a57806371aad10d146101b7575b600080fd5b3480156100b857600080fd5b506100d360048036038101906100ce9190610bf7565b6102ab565b6040516100e09190610c3f565b60405180910390f35b3480156100f557600080fd5b50610110600480360381019061010b9190610bf7565b610302565b60405161011d9190610cea565b60405180910390f35b34801561013257600080fd5b5061014d60048036038101906101489190610d42565b6103a2565b005b34801561015b57600080fd5b50610164610478565b6040516101719190610cea565b60405180910390f35b34801561018657600080fd5b506101a1600480360381019061019c9190610bf7565b610506565b6040516101ae9190610d7e565b60405180910390f35b3480156101c357600080fd5b506101de60048036038101906101d99190610ece565b61051e565b6040516101eb9190610cea565b60405180910390f35b34801561020057600080fd5b506102096105f5565b005b34801561021757600080fd5b50610220610722565b60405161022d9190610cea565b60405180910390f35b34801561024257600080fd5b5061024b6107b0565b6040516102589190610cea565b60405180910390f35b34801561026d57600080fd5b5061027661083e565b005b610292600480360381019061028d9190610fb8565b610979565b005b3480156102a057600080fd5b506102a9610a58565b005b600080600660008473ffffffffffffffffffffffffffffffffffffffff1673ffffffffffffffffffffffffffffffffffffffff16815260200190815260200160002080546102f890611030565b9050119050919050565b6006602052806000526040600020600091509050805461032190611030565b80601f016020809104026020016040519081016040528092919081815260200182805461034d90611030565b801561039a5780601f1061036f5761010080835404028352916020019161039a565b820191906000526020600020905b81548152906001019060200180831161037d57829003601f168201915b505050505081565b60001515600960009054906101000a900460ff161515146103f8576040517f08c379a00000000000000000000000000000000000000000000000000000000081526004016103ef906110ad565b60405180910390fd5b80600760003373ffffffffffffffffffffffffffffffffffffffff1673ffffffffffffffffffffffffffffffffffffffff168152602001908152602001600020819055507feff79c505d5e7b944e779e0e4dfaeca7eb1f161aaee4fc533691963ec86e70a5338260405161046d9291906110dc565b60405180910390a150565b6005805461048590611030565b80601f01602080910402602001604051908101604052809291908181526020018280546104b190611030565b80156104fe5780601f106104d3576101008083540402835291602001916104fe565b820191906000526020600020905b8154815290600101906020018083116104e157829003601f168201915b505050505081565b60076020528060005260406000206000915090505481565b60606000825167ffffffffffffffff81111561053d5761053c610da3565b5b6040519080825280601f01601f19166020018201604052801561056f5781602001600182028036833780820191505090505b50905060005b83518110156105eb5783818151811061059157610590611105565b5b602001015160f81c60f81b8282815181106105af576105ae611105565b5b60200101907effffffffffffffffffffffffffffffffffffffffffffffffffffffffffffff1916908160001a9053508080600101915050610575565b5080915050919050565b60008054906101000a900473ffffffffffffffffffffffffffffffffffffffff1673ffffffffffffffffffffffffffffffffffffffff163373ffffffffffffffffffffffffffffffffffffffff1614610683576040517f08c379a000000000000000000000000000000000000000000000000000000000815260040161067a906111a6565b60405180910390fd5b60001515600960009054906101000a900460ff161515146106d9576040517f08c379a00000000000000000000000000000000000000000000000000000000081526004016106d090611212565b60405180910390fd5b6001600960006101000a81548160ff0219169083151502179055507f4cd156ab804e9e9d4ec1f6a25bcba9f82e357ceb26dbc50ef6c6140446736aaa60405160405180910390a1565b6004805461072f90611030565b80601f016020809104026020016040519081016040528092919081815260200182805461075b90611030565b80156107a85780601f1061077d576101008083540402835291602001916107a8565b820191906000526020600020905b81548152906001019060200180831161078b57829003601f168201915b505050505081565b600380546107bd90611030565b80601f01602080910402602001604051908101604052809291908181526020018280546107e990611030565b80156108365780601f1061080b57610100808354040283529160200191610836565b820191906000526020600020905b81548152906001019060200180831161081957829003601f168201915b505050505081565b60008054906101000a900473ffffffffffffffffffffffffffffffffffffffff1673ffffffffffffffffffffffffffffffffffffffff163373ffffffffffffffffffffffffffffffffffffffff16146108cc576040517f08c379a00000000000000000000000000000000000000000000000000000000081526004016108c3906111a6565b60405180910390fd5b60036008805490501015610915576040517f08c379a000000000000000000000000000000000000000000000000000000000815260040161090c9061127e565b60405180910390fd5b7fb1ac22378f03bbcd6605ff5bcb60d231d67fb6ac00a4276b16f8bc25245d1577600160000160009054906101000a900473ffffffffffffffffffffffffffffffffffffffff16600180015460405161096f9291906110dc565b60405180910390a1565b60001515600960009054906101000a900460ff161515146109cf576040517f08c379a00000000000000000000000000000000000000000000000000000000081526004016109c6906110ad565b60405180910390fd5b80600660003373ffffffffffffffffffffffffffffffffffffffff1673ffffffffffffffffffffffffffffffffffffffff1681526020019081526020016000209081610a1b9190611454565b507f3fabff0a9c3ecd6814702e247fa9733e5d0aa69e3a38590f92cb18f623a2254d3334604051610a4d929190611535565b60405180910390a150565b60008054906101000a900473ffffffffffffffffffffffffffffffffffffffff1673ffffffffffffffffffffffffffffffffffffffff163373ffffffffffffffffffffffffffffffffffffffff1614610ae6576040517f08c379a0000000000000000000000000000000000000000000000000000000008152600401610add906111a6565b60405180910390fd5b60011515600960009054906101000a900460ff16151514610b3c576040517f08c379a0000000000000000000000000000000000000000000000000000000008152600401610b33906115aa565b60405180910390fd5b6000600960006101000a81548160ff0219169083151502179055507f7034ea9978f4090c95c8f1776993ff2ee9c27b04375c47885f33a2a1a6df4e8c60405160405180910390a1565b6000604051905090565b600080fd5b600080fd5b600073ffffffffffffffffffffffffffffffffffffffff82169050919050565b6000610bc482610b99565b9050919050565b610bd481610bb9565b8114610bdf57600080fd5b50565b600081359050610bf181610bcb565b92915050565b600060208284031215610c0d57610c0c610b8f565b5b6000610c1b84828501610be2565b91505092915050565b60008115159050919050565b610c3981610c24565b82525050565b6000602082019050610c546000830184610c30565b92915050565b600081519050919050565b600082825260208201905092915050565b60005b83811015610c94578082015181840152602081019050610c79565b60008484015250505050565b6000601f19601f8301169050919050565b6000610cbc82610c5a565b610cc68185610c65565b9350610cd6818560208601610c76565b610cdf81610ca0565b840191505092915050565b60006020820190508181036000830152610d048184610cb1565b905092915050565b6000819050919050565b610d1f81610d0c565b8114610d2a57600080fd5b50565b600081359050610d3c81610d16565b92915050565b600060208284031215610d5857610d57610b8f565b5b6000610d6684828501610d2d565b91505092915050565b610d7881610d0c565b82525050565b6000602082019050610d936000830184610d6f565b92915050565b600080fd5b600080fd5b7f4e487b7100000000000000000000000000000000000000000000000000000000600052604160045260246000fd5b610ddb82610ca0565b810181811067ffffffffffffffff82111715610dfa57610df9610da3565b5b80604052505050565b6000610e0d610b85565b9050610e198282610dd2565b919050565b600067ffffffffffffffff821115610e3957610e38610da3565b5b610e4282610ca0565b9050602081019050919050565b82818337600083830152505050565b6000610e71610e6c84610e1e565b610e03565b905082815260208101848484011115610e8d57610e8c610d9e565b5b610e98848285610e4f565b509392505050565b600082601f830112610eb557610eb4610d99565b5b8135610ec5848260208601610e5e565b91505092915050565b600060208284031215610ee457610ee3610b8f565b5b600082013567ffffffffffffffff811115610f0257610f01610b94565b5b610f0e84828501610ea0565b91505092915050565b600067ffffffffffffffff821115610f3257610f31610da3565b5b610f3b82610ca0565b9050602081019050919050565b6000610f5b610f5684610f17565b610e03565b905082815260208101848484011115610f7757610f76610d9e565b5b610f82848285610e4f565b509392505050565b600082601f830112610f9f57610f9e610d99565b5b8135610faf848260208601610f48565b91505092915050565b600060208284031215610fce57610fcd610b8f565b5b600082013567ffffffffffffffff811115610fec57610feb610b94565b5b610ff884828501610f8a565b91505092915050565b7f4e487b7100000000000000000000000000000000000000000000000000000000600052602260045260246000fd5b6000600282049050600182168061104857607f821691505b60208210810361105b5761105a611001565b5b50919050565b7f42696464696e672069732063757272656e746c79207061757365640000000000600082015250565b6000611097601b83610c65565b91506110a282611061565b602082019050919050565b600060208201905081810360008301526110c68161108a565b9050919050565b6110d681610bb9565b82525050565b60006040820190506110f160008301856110cd565b6110fe6020830184610d6f565b9392505050565b7f4e487b7100000000000000000000000000000000000000000000000000000000600052603260045260246000fd5b7f4f6e6c79206f776e65722063616e2063616c6c20746869732066756e6374696f60008201527f6e00000000000000000000000000000000000000000000000000000000000000602082015250565b6000611190602183610c65565b915061119b82611134565b604082019050919050565b600060208201905081810360008301526111bf81611183565b9050919050565b7f42696464696e6720697320616c72656164792070617573656400000000000000600082015250565b60006111fc601983610c65565b9150611207826111c6565b602082019050919050565b6000602082019050818103600083015261122b816111ef565b9050919050565b7f4174206c65617374203320626964646572732072657175697265640000000000600082015250565b6000611268601b83610c65565b915061127382611232565b602082019050919050565b600060208201905081810360008301526112978161125b565b9050919050565b60008190508160005260206000209050919050565b60006020601f8301049050919050565b600082821b905092915050565b6000600883026113007fffffffffffffffffffffffffffffffffffffffffffffffffffffffffffffffff826112c3565b61130a86836112c3565b95508019841693508086168417925050509392505050565b6000819050919050565b6000819050919050565b600061135161134c61134784611322565b61132c565b611322565b9050919050565b6000819050919050565b61136b83611336565b61137f61137782611358565b8484546112d0565b825550505050565b600090565b611394611387565b61139f818484611362565b505050565b5b818110156113c3576113b860008261138c565b6001810190506113a5565b5050565b601f821115611408576113d98161129e565b6113e2846112b3565b810160208510156113f1578190505b6114056113fd856112b3565b8301826113a4565b50505b505050565b600082821c905092915050565b600061142b6000198460080261140d565b1980831691505092915050565b6000611444838361141a565b9150826002028217905092915050565b61145d82610c5a565b67ffffffffffffffff81111561147657611475610da3565b5b6114808254611030565b61148b8282856113c7565b600060209050601f8311600181146114be57600084156114ac578287015190505b6114b68582611438565b86555061151e565b601f1984166114cc8661129e565b60005b828110156114f4578489015182556001820191506020850194506020810190506114cf565b86831015611511578489015161150d601f89168261141a565b8355505b6001600288020188555050505b505050505050565b61152f81611322565b82525050565b600060408201905061154a60008301856110cd565b6115576020830184611526565b9392505050565b7f42696464696e67206973206e6f74207061757365640000000000000000000000600082015250565b6000611594601583610c65565b915061159f8261155e565b602082019050919050565b600060208201905081810360008301526115c381611587565b905091905056fea26469706673582212201dfd2b095e063072cf0179bfc15f259e8c263eb6610099d27de5f63d41c9b5c564736f6c63430008180033",
  "linkReferences": {},
  "deployedLinkReferences": {}
}