{
  "_format": "hh-sol-artifact-1",
  "contractName": "disputeHandler",
  "sourceName": "contracts/disputehandler.sol",
  "abi": [
    {
      "inputs": [
        {
          "internalType": "address",
          "name": "_projectId",
          "type": "address"
        },
        {
          "internalType": "string",
          "name": "_problemDescription",
          "type": "string"
        },
        {
          "internalType": "address[]",
          "name": "_arbiterAddresses",
          "type": "address[]"
        }
      ],
      "stateMutability": "nonpayable",
      "type": "constructor"
    },
    {
      "inputs": [],
      "name": "amountToBePaid",
      "outputs": [
        {
          "internalType": "uint256",
          "name": "",
          "type": "uint256"
        }
      ],
      "stateMutability": "view",
      "type": "function"
    },
    {
      "inputs": [
        {
          "internalType": "address",
          "name": "",
          "type": "address"
        }
      ],
      "name": "arbiters",
      "outputs": [
        {
          "internalType": "bool",
          "name": "",
          "type": "bool"
        }
      ],
      "stateMutability": "view",
      "type": "function"
    },
    {
      "inputs": [],
      "name": "calculateVoteResult",
      "outputs": [],
      "stateMutability": "nonpayable",
      "type": "function"
    },
    {
      "inputs": [],
      "name": "freelancer",
      "outputs": [
        {
          "internalType": "address",
          "name": "",
          "type": "address"
        }
      ],
      "stateMutability": "view",
      "type": "function"
    },
    {
      "inputs": [
        {
          "internalType": "address",
          "name": "",
          "type": "address"
        }
      ],
      "name": "hasVoted",
      "outputs": [
        {
          "internalType": "bool",
          "name": "",
          "type": "bool"
        }
      ],
      "stateMutability": "view",
      "type": "function"
    },
    {
      "inputs": [],
      "name": "owner",
      "outputs": [
        {
          "internalType": "address",
          "name": "",
          "type": "address"
        }
      ],
      "stateMutability": "view",
      "type": "function"
    },
    {
      "inputs": [],
      "name": "problemDescription",
      "outputs": [
        {
          "internalType": "string",
          "name": "",
          "type": "string"
        }
      ],
      "stateMutability": "view",
      "type": "function"
    },
    {
      "inputs": [],
      "name": "projectId",
      "outputs": [
        {
          "internalType": "address",
          "name": "",
          "type": "address"
        }
      ],
      "stateMutability": "view",
      "type": "function"
    },
    {
      "inputs": [],
      "name": "totalVotesAgainst",
      "outputs": [
        {
          "internalType": "uint256",
          "name": "",
          "type": "uint256"
        }
      ],
      "stateMutability": "view",
      "type": "function"
    },
    {
      "inputs": [],
      "name": "totalVotesFor",
      "outputs": [
        {
          "internalType": "uint256",
          "name": "",
          "type": "uint256"
        }
      ],
      "stateMutability": "view",
      "type": "function"
    },
    {
      "inputs": [
        {
          "internalType": "bool",
          "name": "_voteFor",
          "type": "bool"
        }
      ],
      "name": "vote",
      "outputs": [],
      "stateMutability": "nonpayable",
      "type": "function"
    },
    {
      "inputs": [
        {
          "internalType": "address",
          "name": "",
          "type": "address"
        }
      ],
      "name": "votedFor",
      "outputs": [
        {
          "internalType": "bool",
          "name": "",
          "type": "bool"
        }
      ],
      "stateMutability": "view",
      "type": "function"
    },
    {
      "inputs": [],
      "name": "winningBidAmount",
      "outputs": [
        {
          "internalType": "uint256",
          "name": "",
          "type": "uint256"
        }
      ],
      "stateMutability": "view",
      "type": "function"
    }
  ],
  "bytecode": "0x60806040523480156200001157600080fd5b50604051620015af380380620015af833981810160405281019062000037919062000437565b33600a60006101000a81548173ffffffffffffffffffffffffffffffffffffffff021916908373ffffffffffffffffffffffffffffffffffffffff160217905550826000806101000a81548173ffffffffffffffffffffffffffffffffffffffff021916908373ffffffffffffffffffffffffffffffffffffffff1602179055508160019081620000c991906200071c565b5060005b81518110156200015a57600160026000848481518110620000f357620000f262000803565b5b602002602001015173ffffffffffffffffffffffffffffffffffffffff1673ffffffffffffffffffffffffffffffffffffffff16815260200190815260200160002060006101000a81548160ff0219169083151502179055508080600101915050620000cd565b5050505062000832565b6000604051905090565b600080fd5b600080fd5b600073ffffffffffffffffffffffffffffffffffffffff82169050919050565b6000620001a58262000178565b9050919050565b620001b78162000198565b8114620001c357600080fd5b50565b600081519050620001d781620001ac565b92915050565b600080fd5b600080fd5b6000601f19601f8301169050919050565b7f4e487b7100000000000000000000000000000000000000000000000000000000600052604160045260246000fd5b6200023282620001e7565b810181811067ffffffffffffffff82111715620002545762000253620001f8565b5b80604052505050565b60006200026962000164565b905062000277828262000227565b919050565b600067ffffffffffffffff8211156200029a5762000299620001f8565b5b620002a582620001e7565b9050602081019050919050565b60005b83811015620002d2578082015181840152602081019050620002b5565b60008484015250505050565b6000620002f5620002ef846200027c565b6200025d565b905082815260208101848484011115620003145762000313620001e2565b5b62000321848285620002b2565b509392505050565b600082601f830112620003415762000340620001dd565b5b815162000353848260208601620002de565b91505092915050565b600067ffffffffffffffff8211156200037a5762000379620001f8565b5b602082029050602081019050919050565b600080fd5b6000620003a7620003a1846200035c565b6200025d565b90508083825260208201905060208402830185811115620003cd57620003cc6200038b565b5b835b81811015620003fa5780620003e58882620001c6565b845260208401935050602081019050620003cf565b5050509392505050565b600082601f8301126200041c576200041b620001dd565b5b81516200042e84826020860162000390565b91505092915050565b6000806000606084860312156200045357620004526200016e565b5b60006200046386828701620001c6565b935050602084015167ffffffffffffffff81111562000487576200048662000173565b5b620004958682870162000329565b925050604084015167ffffffffffffffff811115620004b957620004b862000173565b5b620004c78682870162000404565b9150509250925092565b600081519050919050565b7f4e487b7100000000000000000000000000000000000000000000000000000000600052602260045260246000fd5b600060028204905060018216806200052457607f821691505b6020821081036200053a5762000539620004dc565b5b50919050565b60008190508160005260206000209050919050565b60006020601f8301049050919050565b600082821b905092915050565b600060088302620005a47fffffffffffffffffffffffffffffffffffffffffffffffffffffffffffffffff8262000565565b620005b0868362000565565b95508019841693508086168417925050509392505050565b6000819050919050565b6000819050919050565b6000620005fd620005f7620005f184620005c8565b620005d2565b620005c8565b9050919050565b6000819050919050565b6200061983620005dc565b62000631620006288262000604565b84845462000572565b825550505050565b600090565b6200064862000639565b620006558184846200060e565b505050565b5b818110156200067d57620006716000826200063e565b6001810190506200065b565b5050565b601f821115620006cc57620006968162000540565b620006a18462000555565b81016020851015620006b1578190505b620006c9620006c08562000555565b8301826200065a565b50505b505050565b600082821c905092915050565b6000620006f160001984600802620006d1565b1980831691505092915050565b60006200070c8383620006de565b9150826002028217905092915050565b6200072782620004d1565b67ffffffffffffffff811115620007435762000742620001f8565b5b6200074f82546200050b565b6200075c82828562000681565b600060209050601f8311600181146200079457600084156200077f578287015190505b6200078b8582620006fe565b865550620007fb565b601f198416620007a48662000540565b60005b82811015620007ce57848901518255600182019150602085019450602081019050620007a7565b86831015620007ee5784890151620007ea601f891682620006de565b8355505b6001600288020188555050505b505050505050565b7f4e487b7100000000000000000000000000000000000000000000000000000000600052603260045260246000fd5b610d6d80620008426000396000f3fe608060405234801561001057600080fd5b50600436106100cf5760003560e01c80638d138e401161008c578063ad6a71fc11610066578063ad6a71fc14610204578063c848e4e714610222578063c9a448a214610240578063f594f13f1461024a576100cf565b80638d138e40146101aa5780638da5cb5b146101c8578063a37dda2c146101e6576100cf565b806309eef43e146100d45780630e883cd5146101045780633fafa127146101225780634b9f5c9814610140578063559405ee1461015c5780637bf2bb101461017a575b600080fd5b6100ee60048036038101906100e9919061082e565b61027a565b6040516100fb9190610876565b60405180910390f35b61010c61029a565b6040516101199190610921565b60405180910390f35b61012a610328565b6040516101379190610952565b60405180910390f35b61015a60048036038101906101559190610999565b61034c565b005b610164610554565b60405161017191906109df565b60405180910390f35b610194600480360381019061018f919061082e565b61055a565b6040516101a19190610876565b60405180910390f35b6101b261057a565b6040516101bf91906109df565b60405180910390f35b6101d0610580565b6040516101dd9190610952565b60405180910390f35b6101ee6105a6565b6040516101fb9190610952565b60405180910390f35b61020c6105cc565b60405161021991906109df565b60405180910390f35b61022a6105d2565b60405161023791906109df565b60405180910390f35b6102486105d8565b005b610264600480360381019061025f919061082e565b610695565b6040516102719190610876565b60405180910390f35b60036020528060005260406000206000915054906101000a900460ff1681565b600180546102a790610a29565b80601f01602080910402602001604051908101604052809291908181526020018280546102d390610a29565b80156103205780601f106102f557610100808354040283529160200191610320565b820191906000526020600020905b81548152906001019060200180831161030357829003601f168201915b505050505081565b60008054906101000a900473ffffffffffffffffffffffffffffffffffffffff1681565b600260003373ffffffffffffffffffffffffffffffffffffffff1673ffffffffffffffffffffffffffffffffffffffff16815260200190815260200160002060009054906101000a900460ff166103d8576040517f08c379a00000000000000000000000000000000000000000000000000000000081526004016103cf90610acc565b60405180910390fd5b600360003373ffffffffffffffffffffffffffffffffffffffff1673ffffffffffffffffffffffffffffffffffffffff16815260200190815260200160002060009054906101000a900460ff1615610465576040517f08c379a000000000000000000000000000000000000000000000000000000000815260040161045c90610b38565b60405180910390fd5b6001600360003373ffffffffffffffffffffffffffffffffffffffff1673ffffffffffffffffffffffffffffffffffffffff16815260200190815260200160002060006101000a81548160ff0219169083151502179055508015610538576001600460003373ffffffffffffffffffffffffffffffffffffffff1673ffffffffffffffffffffffffffffffffffffffff16815260200190815260200160002060006101000a81548160ff0219169083151502179055506005600081548092919061052e90610b87565b9190505550610551565b6006600081548092919061054b90610b87565b91905055505b50565b60075481565b60026020528060005260406000206000915054906101000a900460ff1681565b60055481565b600a60009054906101000a900473ffffffffffffffffffffffffffffffffffffffff1681565b600960009054906101000a900473ffffffffffffffffffffffffffffffffffffffff1681565b60085481565b60065481565b600a60009054906101000a900473ffffffffffffffffffffffffffffffffffffffff1673ffffffffffffffffffffffffffffffffffffffff163373ffffffffffffffffffffffffffffffffffffffff1614610668576040517f08c379a000000000000000000000000000000000000000000000000000000000815260040161065f90610c41565b60405180910390fd5b6000600654600554111561067b57600190505b61068c6005546006546007546106b5565b60088190555050565b60046020528060005260406000206000915054906101000a900460ff1681565b60008084036106c757600090506107c4565b600083856106d59190610c61565b905060008414806106f25750836002866106ef9190610cc4565b10155b1561070057829150506107c4565b8385111561073f576064816107159190610cf5565b836064876107239190610cf5565b61072d9190610cf5565b6107379190610cc4565b9150506107c4565b8385036107675760648360236107559190610cf5565b61075f9190610cc4565b9150506107c4565b848411801561078157508460028561077f9190610cc4565b105b156107a757606483600a6107959190610cf5565b61079f9190610cc4565b9150506107c4565b60648360056107b69190610cf5565b6107c09190610cc4565b9150505b9392505050565b600080fd5b600073ffffffffffffffffffffffffffffffffffffffff82169050919050565b60006107fb826107d0565b9050919050565b61080b816107f0565b811461081657600080fd5b50565b60008135905061082881610802565b92915050565b600060208284031215610844576108436107cb565b5b600061085284828501610819565b91505092915050565b60008115159050919050565b6108708161085b565b82525050565b600060208201905061088b6000830184610867565b92915050565b600081519050919050565b600082825260208201905092915050565b60005b838110156108cb5780820151818401526020810190506108b0565b60008484015250505050565b6000601f19601f8301169050919050565b60006108f382610891565b6108fd818561089c565b935061090d8185602086016108ad565b610916816108d7565b840191505092915050565b6000602082019050818103600083015261093b81846108e8565b905092915050565b61094c816107f0565b82525050565b60006020820190506109676000830184610943565b92915050565b6109768161085b565b811461098157600080fd5b50565b6000813590506109938161096d565b92915050565b6000602082840312156109af576109ae6107cb565b5b60006109bd84828501610984565b91505092915050565b6000819050919050565b6109d9816109c6565b82525050565b60006020820190506109f460008301846109d0565b92915050565b7f4e487b7100000000000000000000000000000000000000000000000000000000600052602260045260246000fd5b60006002820490506001821680610a4157607f821691505b602082108103610a5457610a536109fa565b5b50919050565b7f4f6e6c792061726269746572732063616e2063616c6c20746869732066756e6360008201527f74696f6e00000000000000000000000000000000000000000000000000000000602082015250565b6000610ab660248361089c565b9150610ac182610a5a565b604082019050919050565b60006020820190508181036000830152610ae581610aa9565b9050919050565b7f417262697465722068617320616c726561647920766f74656400000000000000600082015250565b6000610b2260198361089c565b9150610b2d82610aec565b602082019050919050565b60006020820190508181036000830152610b5181610b15565b9050919050565b7f4e487b7100000000000000000000000000000000000000000000000000000000600052601160045260246000fd5b6000610b92826109c6565b91507fffffffffffffffffffffffffffffffffffffffffffffffffffffffffffffffff8203610bc457610bc3610b58565b5b600182019050919050565b7f4f6e6c79206f776e65722063616e2063616c6c20746869732066756e6374696f60008201527f6e00000000000000000000000000000000000000000000000000000000000000602082015250565b6000610c2b60218361089c565b9150610c3682610bcf565b604082019050919050565b60006020820190508181036000830152610c5a81610c1e565b9050919050565b6000610c6c826109c6565b9150610c77836109c6565b9250828201905080821115610c8f57610c8e610b58565b5b92915050565b7f4e487b7100000000000000000000000000000000000000000000000000000000600052601260045260246000fd5b6000610ccf826109c6565b9150610cda836109c6565b925082610cea57610ce9610c95565b5b828204905092915050565b6000610d00826109c6565b9150610d0b836109c6565b9250828202610d19816109c6565b91508282048414831517610d3057610d2f610b58565b5b509291505056fea2646970667358221220eb1087e95283d7e24d5af3d51642ad7f2fa67c1e2276ce12eaa41c173defadfa64736f6c63430008180033",
  "linkReferences": {},
  "deployedLinkReferences": {}
}