{
  "_format": "hh-sol-artifact-1",
  "contractName": "disputeHandler",
  "sourceName": "contracts/disputehandler.sol",
  "abi": [
    {
      "inputs": [
        {
          "internalType": "address[]",
          "name": "_arbiters",
          "type": "address[]"
        },
        {
          "internalType": "uint256",
          "name": "_winningBidAmount",
          "type": "uint256"
        }
      ],
      "stateMutability": "nonpayable",
      "type": "constructor"
    },
    {
      "inputs": [],
      "name": "amountToBePaid",
      "outputs": [
        {
          "internalType": "uint256",
          "name": "",
          "type": "uint256"
        }
      ],
      "stateMutability": "view",
      "type": "function"
    },
    {
      "inputs": [
        {
          "internalType": "address",
          "name": "",
          "type": "address"
        }
      ],
      "name": "arbiters",
      "outputs": [
        {
          "internalType": "bool",
          "name": "",
          "type": "bool"
        }
      ],
      "stateMutability": "view",
      "type": "function"
    },
    {
      "inputs": [],
      "name": "calculateVoteResult",
      "outputs": [],
      "stateMutability": "nonpayable",
      "type": "function"
    },
    {
      "inputs": [],
      "name": "freelancer",
      "outputs": [
        {
          "internalType": "address",
          "name": "",
          "type": "address"
        }
      ],
      "stateMutability": "view",
      "type": "function"
    },
    {
      "inputs": [
        {
          "internalType": "address",
          "name": "",
          "type": "address"
        }
      ],
      "name": "hasVoted",
      "outputs": [
        {
          "internalType": "bool",
          "name": "",
          "type": "bool"
        }
      ],
      "stateMutability": "view",
      "type": "function"
    },
    {
      "inputs": [],
      "name": "owner",
      "outputs": [
        {
          "internalType": "address",
          "name": "",
          "type": "address"
        }
      ],
      "stateMutability": "view",
      "type": "function"
    },
    {
      "inputs": [],
      "name": "totalVotesAgainst",
      "outputs": [
        {
          "internalType": "uint256",
          "name": "",
          "type": "uint256"
        }
      ],
      "stateMutability": "view",
      "type": "function"
    },
    {
      "inputs": [],
      "name": "totalVotesFor",
      "outputs": [
        {
          "internalType": "uint256",
          "name": "",
          "type": "uint256"
        }
      ],
      "stateMutability": "view",
      "type": "function"
    },
    {
      "inputs": [
        {
          "internalType": "bool",
          "name": "_voteFor",
          "type": "bool"
        }
      ],
      "name": "vote",
      "outputs": [],
      "stateMutability": "nonpayable",
      "type": "function"
    },
    {
      "inputs": [
        {
          "internalType": "address",
          "name": "",
          "type": "address"
        }
      ],
      "name": "votedFor",
      "outputs": [
        {
          "internalType": "bool",
          "name": "",
          "type": "bool"
        }
      ],
      "stateMutability": "view",
      "type": "function"
    },
    {
      "inputs": [],
      "name": "winningBidAmount",
      "outputs": [
        {
          "internalType": "uint256",
          "name": "",
          "type": "uint256"
        }
      ],
      "stateMutability": "view",
      "type": "function"
    }
  ],
  "bytecode": "0x60806040523480156200001157600080fd5b5060405162000f3b38038062000f3b833981810160405281019062000037919062000340565b33600860006101000a81548173ffffffffffffffffffffffffffffffffffffffff021916908373ffffffffffffffffffffffffffffffffffffffff1602179055508060058190555060005b82518110156200010e576001600080858481518110620000a757620000a6620003a6565b5b602002602001015173ffffffffffffffffffffffffffffffffffffffff1673ffffffffffffffffffffffffffffffffffffffff16815260200190815260200160002060006101000a81548160ff021916908315150217905550808060010191505062000082565b505050620003d5565b6000604051905090565b600080fd5b600080fd5b600080fd5b6000601f19601f8301169050919050565b7f4e487b7100000000000000000000000000000000000000000000000000000000600052604160045260246000fd5b6200017b8262000130565b810181811067ffffffffffffffff821117156200019d576200019c62000141565b5b80604052505050565b6000620001b262000117565b9050620001c0828262000170565b919050565b600067ffffffffffffffff821115620001e357620001e262000141565b5b602082029050602081019050919050565b600080fd5b600073ffffffffffffffffffffffffffffffffffffffff82169050919050565b60006200022682620001f9565b9050919050565b620002388162000219565b81146200024457600080fd5b50565b60008151905062000258816200022d565b92915050565b6000620002756200026f84620001c5565b620001a6565b905080838252602082019050602084028301858111156200029b576200029a620001f4565b5b835b81811015620002c85780620002b3888262000247565b8452602084019350506020810190506200029d565b5050509392505050565b600082601f830112620002ea57620002e96200012b565b5b8151620002fc8482602086016200025e565b91505092915050565b6000819050919050565b6200031a8162000305565b81146200032657600080fd5b50565b6000815190506200033a816200030f565b92915050565b600080604083850312156200035a576200035962000121565b5b600083015167ffffffffffffffff8111156200037b576200037a62000126565b5b6200038985828601620002d2565b92505060206200039c8582860162000329565b9150509250929050565b7f4e487b7100000000000000000000000000000000000000000000000000000000600052603260045260246000fd5b610b5680620003e56000396000f3fe608060405234801561001057600080fd5b50600436106100a95760003560e01c80638da5cb5b116100715780638da5cb5b14610166578063a37dda2c14610184578063ad6a71fc146101a2578063c848e4e7146101c0578063c9a448a2146101de578063f594f13f146101e8576100a9565b806309eef43e146100ae5780634b9f5c98146100de578063559405ee146100fa5780637bf2bb10146101185780638d138e4014610148575b600080fd5b6100c860048036038101906100c39190610718565b610218565b6040516100d59190610760565b60405180910390f35b6100f860048036038101906100f391906107a7565b610238565b005b61010261043e565b60405161010f91906107ed565b60405180910390f35b610132600480360381019061012d9190610718565b610444565b60405161013f9190610760565b60405180910390f35b610150610464565b60405161015d91906107ed565b60405180910390f35b61016e61046a565b60405161017b9190610817565b60405180910390f35b61018c610490565b6040516101999190610817565b60405180910390f35b6101aa6104b6565b6040516101b791906107ed565b60405180910390f35b6101c86104bc565b6040516101d591906107ed565b60405180910390f35b6101e66104c2565b005b61020260048036038101906101fd9190610718565b61057f565b60405161020f9190610760565b60405180910390f35b60016020528060005260406000206000915054906101000a900460ff1681565b6000803373ffffffffffffffffffffffffffffffffffffffff1673ffffffffffffffffffffffffffffffffffffffff16815260200190815260200160002060009054906101000a900460ff166102c3576040517f08c379a00000000000000000000000000000000000000000000000000000000081526004016102ba906108b5565b60405180910390fd5b600160003373ffffffffffffffffffffffffffffffffffffffff1673ffffffffffffffffffffffffffffffffffffffff16815260200190815260200160002060009054906101000a900460ff1615610350576040517f08c379a000000000000000000000000000000000000000000000000000000000815260040161034790610921565b60405180910390fd5b60018060003373ffffffffffffffffffffffffffffffffffffffff1673ffffffffffffffffffffffffffffffffffffffff16815260200190815260200160002060006101000a81548160ff0219169083151502179055508015610422576001600260003373ffffffffffffffffffffffffffffffffffffffff1673ffffffffffffffffffffffffffffffffffffffff16815260200190815260200160002060006101000a81548160ff0219169083151502179055506003600081548092919061041890610970565b919050555061043b565b6004600081548092919061043590610970565b91905055505b50565b60055481565b60006020528060005260406000206000915054906101000a900460ff1681565b60035481565b600860009054906101000a900473ffffffffffffffffffffffffffffffffffffffff1681565b600760009054906101000a900473ffffffffffffffffffffffffffffffffffffffff1681565b60065481565b60045481565b600860009054906101000a900473ffffffffffffffffffffffffffffffffffffffff1673ffffffffffffffffffffffffffffffffffffffff163373ffffffffffffffffffffffffffffffffffffffff1614610552576040517f08c379a000000000000000000000000000000000000000000000000000000000815260040161054990610a2a565b60405180910390fd5b6000600454600354111561056557600190505b61057660035460045460055461059f565b60068190555050565b60026020528060005260406000206000915054906101000a900460ff1681565b60008084036105b157600090506106ae565b600083856105bf9190610a4a565b905060008414806105dc5750836002866105d99190610aad565b10155b156105ea57829150506106ae565b83851115610629576064816105ff9190610ade565b8360648761060d9190610ade565b6106179190610ade565b6106219190610aad565b9150506106ae565b83850361065157606483602361063f9190610ade565b6106499190610aad565b9150506106ae565b848411801561066b5750846002856106699190610aad565b105b1561069157606483600a61067f9190610ade565b6106899190610aad565b9150506106ae565b60648360056106a09190610ade565b6106aa9190610aad565b9150505b9392505050565b600080fd5b600073ffffffffffffffffffffffffffffffffffffffff82169050919050565b60006106e5826106ba565b9050919050565b6106f5816106da565b811461070057600080fd5b50565b600081359050610712816106ec565b92915050565b60006020828403121561072e5761072d6106b5565b5b600061073c84828501610703565b91505092915050565b60008115159050919050565b61075a81610745565b82525050565b60006020820190506107756000830184610751565b92915050565b61078481610745565b811461078f57600080fd5b50565b6000813590506107a18161077b565b92915050565b6000602082840312156107bd576107bc6106b5565b5b60006107cb84828501610792565b91505092915050565b6000819050919050565b6107e7816107d4565b82525050565b600060208201905061080260008301846107de565b92915050565b610811816106da565b82525050565b600060208201905061082c6000830184610808565b92915050565b600082825260208201905092915050565b7f4f6e6c792061726269746572732063616e2063616c6c20746869732066756e6360008201527f74696f6e00000000000000000000000000000000000000000000000000000000602082015250565b600061089f602483610832565b91506108aa82610843565b604082019050919050565b600060208201905081810360008301526108ce81610892565b9050919050565b7f417262697465722068617320616c726561647920766f74656400000000000000600082015250565b600061090b601983610832565b9150610916826108d5565b602082019050919050565b6000602082019050818103600083015261093a816108fe565b9050919050565b7f4e487b7100000000000000000000000000000000000000000000000000000000600052601160045260246000fd5b600061097b826107d4565b91507fffffffffffffffffffffffffffffffffffffffffffffffffffffffffffffffff82036109ad576109ac610941565b5b600182019050919050565b7f4f6e6c79206f776e65722063616e2063616c6c20746869732066756e6374696f60008201527f6e00000000000000000000000000000000000000000000000000000000000000602082015250565b6000610a14602183610832565b9150610a1f826109b8565b604082019050919050565b60006020820190508181036000830152610a4381610a07565b9050919050565b6000610a55826107d4565b9150610a60836107d4565b9250828201905080821115610a7857610a77610941565b5b92915050565b7f4e487b7100000000000000000000000000000000000000000000000000000000600052601260045260246000fd5b6000610ab8826107d4565b9150610ac3836107d4565b925082610ad357610ad2610a7e565b5b828204905092915050565b6000610ae9826107d4565b9150610af4836107d4565b9250828202610b02816107d4565b91508282048414831517610b1957610b18610941565b5b509291505056fea26469706673582212202f2a1c82fb0bd8e698f442601f5fc3f525619ab6c0fade54eeef0eb3dedf581b64736f6c63430008180033",
  "linkReferences": {},
  "deployedLinkReferences": {}
}