{
  "_format": "hh-sol-artifact-1",
  "contractName": "Escrow",
  "sourceName": "contracts/escrow.sol",
  "abi": [
    {
      "inputs": [
        {
          "internalType": "address",
          "name": "_freelancer",
          "type": "address"
        },
        {
          "internalType": "uint256",
          "name": "_projectOwnerStake",
          "type": "uint256"
        }
      ],
      "stateMutability": "nonpayable",
      "type": "constructor"
    },
    {
      "inputs": [],
      "name": "assetsLink",
      "outputs": [
        {
          "internalType": "string",
          "name": "",
          "type": "string"
        }
      ],
      "stateMutability": "view",
      "type": "function"
    },
    {
      "inputs": [],
      "name": "codeLink",
      "outputs": [
        {
          "internalType": "string",
          "name": "",
          "type": "string"
        }
      ],
      "stateMutability": "view",
      "type": "function"
    },
    {
      "inputs": [],
      "name": "comments",
      "outputs": [
        {
          "internalType": "string",
          "name": "",
          "type": "string"
        }
      ],
      "stateMutability": "view",
      "type": "function"
    },
    {
      "inputs": [],
      "name": "escrowactivated",
      "outputs": [
        {
          "internalType": "bool",
          "name": "",
          "type": "bool"
        }
      ],
      "stateMutability": "view",
      "type": "function"
    },
    {
      "inputs": [],
      "name": "freelancer",
      "outputs": [
        {
          "internalType": "address",
          "name": "",
          "type": "address"
        }
      ],
      "stateMutability": "view",
      "type": "function"
    },
    {
      "inputs": [],
      "name": "freelancerStake",
      "outputs": [
        {
          "internalType": "uint256",
          "name": "",
          "type": "uint256"
        }
      ],
      "stateMutability": "view",
      "type": "function"
    },
    {
      "inputs": [],
      "name": "freelancerStaked",
      "outputs": [
        {
          "internalType": "bool",
          "name": "",
          "type": "bool"
        }
      ],
      "stateMutability": "view",
      "type": "function"
    },
    {
      "inputs": [],
      "name": "funds_released",
      "outputs": [
        {
          "internalType": "bool",
          "name": "",
          "type": "bool"
        }
      ],
      "stateMutability": "view",
      "type": "function"
    },
    {
      "inputs": [],
      "name": "projectOwner",
      "outputs": [
        {
          "internalType": "address",
          "name": "",
          "type": "address"
        }
      ],
      "stateMutability": "view",
      "type": "function"
    },
    {
      "inputs": [],
      "name": "projectOwnerStake",
      "outputs": [
        {
          "internalType": "uint256",
          "name": "",
          "type": "uint256"
        }
      ],
      "stateMutability": "view",
      "type": "function"
    },
    {
      "inputs": [],
      "name": "projectOwnerStaked",
      "outputs": [
        {
          "internalType": "bool",
          "name": "",
          "type": "bool"
        }
      ],
      "stateMutability": "view",
      "type": "function"
    },
    {
      "inputs": [],
      "name": "projectSubmitted",
      "outputs": [
        {
          "internalType": "bool",
          "name": "",
          "type": "bool"
        }
      ],
      "stateMutability": "view",
      "type": "function"
    },
    {
      "inputs": [],
      "name": "releaseFunds",
      "outputs": [],
      "stateMutability": "nonpayable",
      "type": "function"
    },
    {
      "inputs": [],
      "name": "stakeFreelancer",
      "outputs": [],
      "stateMutability": "nonpayable",
      "type": "function"
    },
    {
      "inputs": [
        {
          "internalType": "string",
          "name": "_codeLink",
          "type": "string"
        },
        {
          "internalType": "string",
          "name": "_assetsLink",
          "type": "string"
        },
        {
          "internalType": "string",
          "name": "_comments",
          "type": "string"
        }
      ],
      "name": "submitProject",
      "outputs": [],
      "stateMutability": "nonpayable",
      "type": "function"
    }
  ],
  "bytecode": "0x60806040523480156200001157600080fd5b50604051620014363803806200143683398181016040528101906200003791906200016c565b336000806101000a81548173ffffffffffffffffffffffffffffffffffffffff021916908373ffffffffffffffffffffffffffffffffffffffff16021790555081600160006101000a81548173ffffffffffffffffffffffffffffffffffffffff021916908373ffffffffffffffffffffffffffffffffffffffff160217905550806002819055505050620001b3565b600080fd5b600073ffffffffffffffffffffffffffffffffffffffff82169050919050565b6000620000f982620000cc565b9050919050565b6200010b81620000ec565b81146200011757600080fd5b50565b6000815190506200012b8162000100565b92915050565b6000819050919050565b620001468162000131565b81146200015257600080fd5b50565b60008151905062000166816200013b565b92915050565b60008060408385031215620001865762000185620000c7565b5b600062000196858286016200011a565b9250506020620001a98582860162000155565b9150509250929050565b61127380620001c36000396000f3fe608060405234801561001057600080fd5b50600436106100f55760003560e01c8063a26cc60511610097578063b9080b9c11610066578063b9080b9c1461021a578063bc6a48aa14610238578063c07f24b814610256578063c1a7387b14610274576100f5565b8063a26cc605146101a4578063a2d000e0146101c0578063a37dda2c146101de578063a4475ce4146101fc576100f5565b8063268f4472116100d3578063268f44721461015457806369d895751461017257806398970f8f1461017c5780639eb0fd4c1461019a576100f5565b80630597b76c146100fa57806319668fee1461011857806325c843b914610136575b600080fd5b610102610292565b60405161010f919061088d565b60405180910390f35b6101206102a3565b60405161012d919061088d565b60405180910390f35b61013e6102b6565b60405161014b9190610938565b60405180910390f35b61015c610344565b604051610169919061088d565b60405180910390f35b61017a610357565b005b610184610413565b6040516101919190610938565b60405180910390f35b6101a26104a1565b005b6101be60048036038101906101b99190610aa3565b6105a4565b005b6101c8610768565b6040516101d59190610b63565b60405180910390f35b6101e661076e565b6040516101f39190610bbf565b60405180910390f35b610204610794565b6040516102119190610bbf565b60405180910390f35b6102226107b8565b60405161022f919061088d565b60405180910390f35b6102406107cb565b60405161024d9190610b63565b60405180910390f35b61025e6107d1565b60405161026b9190610938565b60405180910390f35b61027c61085f565b604051610289919061088d565b60405180910390f35b60048054906101000a900460ff1681565b600460019054906101000a900460ff1681565b600780546102c390610c09565b80601f01602080910402602001604051908101604052809291908181526020018280546102ef90610c09565b801561033c5780601f106103115761010080835404028352916020019161033c565b820191906000526020600020905b81548152906001019060200180831161031f57829003601f168201915b505050505081565b600460009054906101000a900460ff1681565b600460019054906101000a900460ff166103a6576040517f08c379a000000000000000000000000000000000000000000000000000000000815260040161039d90610cac565b60405180910390fd5b600460009054906101000a900460ff16156103f6576040517f08c379a00000000000000000000000000000000000000000000000000000000081526004016103ed90610d3e565b60405180910390fd5b6001600460006101000a81548160ff021916908315150217905550565b6005805461042090610c09565b80601f016020809104026020016040519081016040528092919081815260200182805461044c90610c09565b80156104995780601f1061046e57610100808354040283529160200191610499565b820191906000526020600020905b81548152906001019060200180831161047c57829003601f168201915b505050505081565b600160009054906101000a900473ffffffffffffffffffffffffffffffffffffffff1673ffffffffffffffffffffffffffffffffffffffff163373ffffffffffffffffffffffffffffffffffffffff1614610531576040517f08c379a000000000000000000000000000000000000000000000000000000000815260040161052890610dd0565b60405180910390fd5b600460009054906101000a900460ff1615610581576040517f08c379a000000000000000000000000000000000000000000000000000000000815260040161057890610d3e565b60405180910390fd5b60646002546105909190610e1f565b600561059c9190610e7f565b600381905550565b600160009054906101000a900473ffffffffffffffffffffffffffffffffffffffff1673ffffffffffffffffffffffffffffffffffffffff163373ffffffffffffffffffffffffffffffffffffffff1614610634576040517f08c379a000000000000000000000000000000000000000000000000000000000815260040161062b90610dd0565b60405180910390fd5b600460009054906101000a900460ff1615610684576040517f08c379a000000000000000000000000000000000000000000000000000000000815260040161067b90610d3e565b60405180910390fd5b600460019054906101000a900460ff16156106d4576040517f08c379a00000000000000000000000000000000000000000000000000000000081526004016106cb90610f33565b60405180910390fd5b6000835111610718576040517f08c379a000000000000000000000000000000000000000000000000000000000815260040161070f90610f9f565b60405180910390fd5b8260059081610727919061116b565b508160069081610737919061116b565b508060079081610747919061116b565b506001600460016101000a81548160ff021916908315150217905550505050565b60025481565b600160009054906101000a900473ffffffffffffffffffffffffffffffffffffffff1681565b60008054906101000a900473ffffffffffffffffffffffffffffffffffffffff1681565b600460029054906101000a900460ff1681565b60035481565b600680546107de90610c09565b80601f016020809104026020016040519081016040528092919081815260200182805461080a90610c09565b80156108575780601f1061082c57610100808354040283529160200191610857565b820191906000526020600020905b81548152906001019060200180831161083a57829003601f168201915b505050505081565b600460039054906101000a900460ff1681565b60008115159050919050565b61088781610872565b82525050565b60006020820190506108a2600083018461087e565b92915050565b600081519050919050565b600082825260208201905092915050565b60005b838110156108e25780820151818401526020810190506108c7565b60008484015250505050565b6000601f19601f8301169050919050565b600061090a826108a8565b61091481856108b3565b93506109248185602086016108c4565b61092d816108ee565b840191505092915050565b6000602082019050818103600083015261095281846108ff565b905092915050565b6000604051905090565b600080fd5b600080fd5b600080fd5b600080fd5b7f4e487b7100000000000000000000000000000000000000000000000000000000600052604160045260246000fd5b6109b0826108ee565b810181811067ffffffffffffffff821117156109cf576109ce610978565b5b80604052505050565b60006109e261095a565b90506109ee82826109a7565b919050565b600067ffffffffffffffff821115610a0e57610a0d610978565b5b610a17826108ee565b9050602081019050919050565b82818337600083830152505050565b6000610a46610a41846109f3565b6109d8565b905082815260208101848484011115610a6257610a61610973565b5b610a6d848285610a24565b509392505050565b600082601f830112610a8a57610a8961096e565b5b8135610a9a848260208601610a33565b91505092915050565b600080600060608486031215610abc57610abb610964565b5b600084013567ffffffffffffffff811115610ada57610ad9610969565b5b610ae686828701610a75565b935050602084013567ffffffffffffffff811115610b0757610b06610969565b5b610b1386828701610a75565b925050604084013567ffffffffffffffff811115610b3457610b33610969565b5b610b4086828701610a75565b9150509250925092565b6000819050919050565b610b5d81610b4a565b82525050565b6000602082019050610b786000830184610b54565b92915050565b600073ffffffffffffffffffffffffffffffffffffffff82169050919050565b6000610ba982610b7e565b9050919050565b610bb981610b9e565b82525050565b6000602082019050610bd46000830184610bb0565b92915050565b7f4e487b7100000000000000000000000000000000000000000000000000000000600052602260045260246000fd5b60006002820490506001821680610c2157607f821691505b602082108103610c3457610c33610bda565b5b50919050565b7f50726f6a65637420686173206e6f74206265656e207375626d6974746564207960008201527f65742e0000000000000000000000000000000000000000000000000000000000602082015250565b6000610c966023836108b3565b9150610ca182610c3a565b604082019050919050565b60006020820190508181036000830152610cc581610c89565b9050919050565b7f46756e6473206861766520616c7265616479206265656e2072656c656173656460008201527f2e00000000000000000000000000000000000000000000000000000000000000602082015250565b6000610d286021836108b3565b9150610d3382610ccc565b604082019050919050565b60006020820190508181036000830152610d5781610d1b565b9050919050565b7f4f6e6c792074686520667265656c616e6365722063616e20706572666f726d2060008201527f7468697320616374696f6e2e0000000000000000000000000000000000000000602082015250565b6000610dba602c836108b3565b9150610dc582610d5e565b604082019050919050565b60006020820190508181036000830152610de981610dad565b9050919050565b7f4e487b7100000000000000000000000000000000000000000000000000000000600052601260045260246000fd5b6000610e2a82610b4a565b9150610e3583610b4a565b925082610e4557610e44610df0565b5b828206905092915050565b7f4e487b7100000000000000000000000000000000000000000000000000000000600052601160045260246000fd5b6000610e8a82610b4a565b9150610e9583610b4a565b9250828202610ea381610b4a565b91508282048414831517610eba57610eb9610e50565b5b5092915050565b7f50726f6a6563742068617320616c7265616479206265656e207375626d69747460008201527f65642e0000000000000000000000000000000000000000000000000000000000602082015250565b6000610f1d6023836108b3565b9150610f2882610ec1565b604082019050919050565b60006020820190508181036000830152610f4c81610f10565b9050919050565b7f436f6465206c696e6b2063616e6e6f7420626520626c616e6b2e000000000000600082015250565b6000610f89601a836108b3565b9150610f9482610f53565b602082019050919050565b60006020820190508181036000830152610fb881610f7c565b9050919050565b60008190508160005260206000209050919050565b60006020601f8301049050919050565b600082821b905092915050565b6000600883026110217fffffffffffffffffffffffffffffffffffffffffffffffffffffffffffffffff82610fe4565b61102b8683610fe4565b95508019841693508086168417925050509392505050565b6000819050919050565b600061106861106361105e84610b4a565b611043565b610b4a565b9050919050565b6000819050919050565b6110828361104d565b61109661108e8261106f565b848454610ff1565b825550505050565b600090565b6110ab61109e565b6110b6818484611079565b505050565b5b818110156110da576110cf6000826110a3565b6001810190506110bc565b5050565b601f82111561111f576110f081610fbf565b6110f984610fd4565b81016020851015611108578190505b61111c61111485610fd4565b8301826110bb565b50505b505050565b600082821c905092915050565b600061114260001984600802611124565b1980831691505092915050565b600061115b8383611131565b9150826002028217905092915050565b611174826108a8565b67ffffffffffffffff81111561118d5761118c610978565b5b6111978254610c09565b6111a28282856110de565b600060209050601f8311600181146111d557600084156111c3578287015190505b6111cd858261114f565b865550611235565b601f1984166111e386610fbf565b60005b8281101561120b578489015182556001820191506020850194506020810190506111e6565b868310156112285784890151611224601f891682611131565b8355505b6001600288020188555050505b50505050505056fea264697066735822122041edfdb6af058ad1308ccc3fe3a961b6c0f6d5bc8a57c5c72aa9be75abcb663464736f6c63430008180033",
  "linkReferences": {},
  "deployedLinkReferences": {}
}