{
  "_format": "hh-sol-artifact-1",
  "contractName": "Escrow",
  "sourceName": "contracts/escrow.sol",
  "abi": [
    {
      "inputs": [
        {
          "internalType": "address",
          "name": "_freelancer",
          "type": "address"
        },
        {
          "internalType": "uint256",
          "name": "_projectOwnerStake",
          "type": "uint256"
        },
        {
          "internalType": "address",
          "name": "_projectId",
          "type": "address"
        }
      ],
      "stateMutability": "nonpayable",
      "type": "constructor"
    },
    {
      "inputs": [],
      "name": "assetsLink",
      "outputs": [
        {
          "internalType": "string",
          "name": "",
          "type": "string"
        }
      ],
      "stateMutability": "view",
      "type": "function"
    },
    {
      "inputs": [],
      "name": "codeLink",
      "outputs": [
        {
          "internalType": "string",
          "name": "",
          "type": "string"
        }
      ],
      "stateMutability": "view",
      "type": "function"
    },
    {
      "inputs": [],
      "name": "comments",
      "outputs": [
        {
          "internalType": "string",
          "name": "",
          "type": "string"
        }
      ],
      "stateMutability": "view",
      "type": "function"
    },
    {
      "inputs": [],
      "name": "escrowactivated",
      "outputs": [
        {
          "internalType": "bool",
          "name": "",
          "type": "bool"
        }
      ],
      "stateMutability": "view",
      "type": "function"
    },
    {
      "inputs": [],
      "name": "freelancer",
      "outputs": [
        {
          "internalType": "address",
          "name": "",
          "type": "address"
        }
      ],
      "stateMutability": "view",
      "type": "function"
    },
    {
      "inputs": [],
      "name": "freelancerStake",
      "outputs": [
        {
          "internalType": "uint256",
          "name": "",
          "type": "uint256"
        }
      ],
      "stateMutability": "view",
      "type": "function"
    },
    {
      "inputs": [],
      "name": "freelancerStaked",
      "outputs": [
        {
          "internalType": "bool",
          "name": "",
          "type": "bool"
        }
      ],
      "stateMutability": "view",
      "type": "function"
    },
    {
      "inputs": [],
      "name": "funds_released",
      "outputs": [
        {
          "internalType": "bool",
          "name": "",
          "type": "bool"
        }
      ],
      "stateMutability": "view",
      "type": "function"
    },
    {
      "inputs": [],
      "name": "projectId",
      "outputs": [
        {
          "internalType": "address",
          "name": "",
          "type": "address"
        }
      ],
      "stateMutability": "view",
      "type": "function"
    },
    {
      "inputs": [],
      "name": "projectOwner",
      "outputs": [
        {
          "internalType": "address",
          "name": "",
          "type": "address"
        }
      ],
      "stateMutability": "view",
      "type": "function"
    },
    {
      "inputs": [],
      "name": "projectOwnerStake",
      "outputs": [
        {
          "internalType": "uint256",
          "name": "",
          "type": "uint256"
        }
      ],
      "stateMutability": "view",
      "type": "function"
    },
    {
      "inputs": [],
      "name": "projectOwnerStaked",
      "outputs": [
        {
          "internalType": "bool",
          "name": "",
          "type": "bool"
        }
      ],
      "stateMutability": "view",
      "type": "function"
    },
    {
      "inputs": [],
      "name": "projectSubmitted",
      "outputs": [
        {
          "internalType": "bool",
          "name": "",
          "type": "bool"
        }
      ],
      "stateMutability": "view",
      "type": "function"
    },
    {
      "inputs": [],
      "name": "releaseFunds",
      "outputs": [],
      "stateMutability": "nonpayable",
      "type": "function"
    },
    {
      "inputs": [],
      "name": "stakeFreelancer",
      "outputs": [],
      "stateMutability": "nonpayable",
      "type": "function"
    },
    {
      "inputs": [
        {
          "internalType": "string",
          "name": "_codeLink",
          "type": "string"
        },
        {
          "internalType": "string",
          "name": "_assetsLink",
          "type": "string"
        },
        {
          "internalType": "string",
          "name": "_comments",
          "type": "string"
        }
      ],
      "name": "submitProject",
      "outputs": [],
      "stateMutability": "nonpayable",
      "type": "function"
    }
  ],
  "bytecode": "0x60806040523480156200001157600080fd5b50604051620014dc380380620014dc8339818101604052810190620000379190620001ae565b336000806101000a81548173ffffffffffffffffffffffffffffffffffffffff021916908373ffffffffffffffffffffffffffffffffffffffff16021790555082600160006101000a81548173ffffffffffffffffffffffffffffffffffffffff021916908373ffffffffffffffffffffffffffffffffffffffff1602179055508160028190555080600860006101000a81548173ffffffffffffffffffffffffffffffffffffffff021916908373ffffffffffffffffffffffffffffffffffffffff1602179055505050506200020a565b600080fd5b600073ffffffffffffffffffffffffffffffffffffffff82169050919050565b60006200013b826200010e565b9050919050565b6200014d816200012e565b81146200015957600080fd5b50565b6000815190506200016d8162000142565b92915050565b6000819050919050565b620001888162000173565b81146200019457600080fd5b50565b600081519050620001a8816200017d565b92915050565b600080600060608486031215620001ca57620001c962000109565b5b6000620001da868287016200015c565b9350506020620001ed8682870162000197565b925050604062000200868287016200015c565b9150509250925092565b6112c2806200021a6000396000f3fe608060405234801561001057600080fd5b50600436106101005760003560e01c8063a26cc60511610097578063b9080b9c11610066578063b9080b9c14610243578063bc6a48aa14610261578063c07f24b81461027f578063c1a7387b1461029d57610100565b8063a26cc605146101cd578063a2d000e0146101e9578063a37dda2c14610207578063a4475ce41461022557610100565b80633fafa127116100d35780633fafa1271461017d57806369d895751461019b57806398970f8f146101a55780639eb0fd4c146101c357610100565b80630597b76c1461010557806319668fee1461012357806325c843b914610141578063268f44721461015f575b600080fd5b61010d6102bb565b60405161011a91906108dc565b60405180910390f35b61012b6102cc565b60405161013891906108dc565b60405180910390f35b6101496102df565b6040516101569190610987565b60405180910390f35b61016761036d565b60405161017491906108dc565b60405180910390f35b610185610380565b60405161019291906109ea565b60405180910390f35b6101a36103a6565b005b6101ad610462565b6040516101ba9190610987565b60405180910390f35b6101cb6104f0565b005b6101e760048036038101906101e29190610b4e565b6105f3565b005b6101f16107b7565b6040516101fe9190610c0e565b60405180910390f35b61020f6107bd565b60405161021c91906109ea565b60405180910390f35b61022d6107e3565b60405161023a91906109ea565b60405180910390f35b61024b610807565b60405161025891906108dc565b60405180910390f35b61026961081a565b6040516102769190610c0e565b60405180910390f35b610287610820565b6040516102949190610987565b60405180910390f35b6102a56108ae565b6040516102b291906108dc565b60405180910390f35b60048054906101000a900460ff1681565b600460019054906101000a900460ff1681565b600780546102ec90610c58565b80601f016020809104026020016040519081016040528092919081815260200182805461031890610c58565b80156103655780601f1061033a57610100808354040283529160200191610365565b820191906000526020600020905b81548152906001019060200180831161034857829003601f168201915b505050505081565b600460009054906101000a900460ff1681565b600860009054906101000a900473ffffffffffffffffffffffffffffffffffffffff1681565b600460019054906101000a900460ff166103f5576040517f08c379a00000000000000000000000000000000000000000000000000000000081526004016103ec90610cfb565b60405180910390fd5b600460009054906101000a900460ff1615610445576040517f08c379a000000000000000000000000000000000000000000000000000000000815260040161043c90610d8d565b60405180910390fd5b6001600460006101000a81548160ff021916908315150217905550565b6005805461046f90610c58565b80601f016020809104026020016040519081016040528092919081815260200182805461049b90610c58565b80156104e85780601f106104bd576101008083540402835291602001916104e8565b820191906000526020600020905b8154815290600101906020018083116104cb57829003601f168201915b505050505081565b600160009054906101000a900473ffffffffffffffffffffffffffffffffffffffff1673ffffffffffffffffffffffffffffffffffffffff163373ffffffffffffffffffffffffffffffffffffffff1614610580576040517f08c379a000000000000000000000000000000000000000000000000000000000815260040161057790610e1f565b60405180910390fd5b600460009054906101000a900460ff16156105d0576040517f08c379a00000000000000000000000000000000000000000000000000000000081526004016105c790610d8d565b60405180910390fd5b60646002546105df9190610e6e565b60056105eb9190610ece565b600381905550565b600160009054906101000a900473ffffffffffffffffffffffffffffffffffffffff1673ffffffffffffffffffffffffffffffffffffffff163373ffffffffffffffffffffffffffffffffffffffff1614610683576040517f08c379a000000000000000000000000000000000000000000000000000000000815260040161067a90610e1f565b60405180910390fd5b600460009054906101000a900460ff16156106d3576040517f08c379a00000000000000000000000000000000000000000000000000000000081526004016106ca90610d8d565b60405180910390fd5b600460019054906101000a900460ff1615610723576040517f08c379a000000000000000000000000000000000000000000000000000000000815260040161071a90610f82565b60405180910390fd5b6000835111610767576040517f08c379a000000000000000000000000000000000000000000000000000000000815260040161075e90610fee565b60405180910390fd5b826005908161077691906111ba565b50816006908161078691906111ba565b50806007908161079691906111ba565b506001600460016101000a81548160ff021916908315150217905550505050565b60025481565b600160009054906101000a900473ffffffffffffffffffffffffffffffffffffffff1681565b60008054906101000a900473ffffffffffffffffffffffffffffffffffffffff1681565b600460029054906101000a900460ff1681565b60035481565b6006805461082d90610c58565b80601f016020809104026020016040519081016040528092919081815260200182805461085990610c58565b80156108a65780601f1061087b576101008083540402835291602001916108a6565b820191906000526020600020905b81548152906001019060200180831161088957829003601f168201915b505050505081565b600460039054906101000a900460ff1681565b60008115159050919050565b6108d6816108c1565b82525050565b60006020820190506108f160008301846108cd565b92915050565b600081519050919050565b600082825260208201905092915050565b60005b83811015610931578082015181840152602081019050610916565b60008484015250505050565b6000601f19601f8301169050919050565b6000610959826108f7565b6109638185610902565b9350610973818560208601610913565b61097c8161093d565b840191505092915050565b600060208201905081810360008301526109a1818461094e565b905092915050565b600073ffffffffffffffffffffffffffffffffffffffff82169050919050565b60006109d4826109a9565b9050919050565b6109e4816109c9565b82525050565b60006020820190506109ff60008301846109db565b92915050565b6000604051905090565b600080fd5b600080fd5b600080fd5b600080fd5b7f4e487b7100000000000000000000000000000000000000000000000000000000600052604160045260246000fd5b610a5b8261093d565b810181811067ffffffffffffffff82111715610a7a57610a79610a23565b5b80604052505050565b6000610a8d610a05565b9050610a998282610a52565b919050565b600067ffffffffffffffff821115610ab957610ab8610a23565b5b610ac28261093d565b9050602081019050919050565b82818337600083830152505050565b6000610af1610aec84610a9e565b610a83565b905082815260208101848484011115610b0d57610b0c610a1e565b5b610b18848285610acf565b509392505050565b600082601f830112610b3557610b34610a19565b5b8135610b45848260208601610ade565b91505092915050565b600080600060608486031215610b6757610b66610a0f565b5b600084013567ffffffffffffffff811115610b8557610b84610a14565b5b610b9186828701610b20565b935050602084013567ffffffffffffffff811115610bb257610bb1610a14565b5b610bbe86828701610b20565b925050604084013567ffffffffffffffff811115610bdf57610bde610a14565b5b610beb86828701610b20565b9150509250925092565b6000819050919050565b610c0881610bf5565b82525050565b6000602082019050610c236000830184610bff565b92915050565b7f4e487b7100000000000000000000000000000000000000000000000000000000600052602260045260246000fd5b60006002820490506001821680610c7057607f821691505b602082108103610c8357610c82610c29565b5b50919050565b7f50726f6a65637420686173206e6f74206265656e207375626d6974746564207960008201527f65742e0000000000000000000000000000000000000000000000000000000000602082015250565b6000610ce5602383610902565b9150610cf082610c89565b604082019050919050565b60006020820190508181036000830152610d1481610cd8565b9050919050565b7f46756e6473206861766520616c7265616479206265656e2072656c656173656460008201527f2e00000000000000000000000000000000000000000000000000000000000000602082015250565b6000610d77602183610902565b9150610d8282610d1b565b604082019050919050565b60006020820190508181036000830152610da681610d6a565b9050919050565b7f4f6e6c792074686520667265656c616e6365722063616e20706572666f726d2060008201527f7468697320616374696f6e2e0000000000000000000000000000000000000000602082015250565b6000610e09602c83610902565b9150610e1482610dad565b604082019050919050565b60006020820190508181036000830152610e3881610dfc565b9050919050565b7f4e487b7100000000000000000000000000000000000000000000000000000000600052601260045260246000fd5b6000610e7982610bf5565b9150610e8483610bf5565b925082610e9457610e93610e3f565b5b828206905092915050565b7f4e487b7100000000000000000000000000000000000000000000000000000000600052601160045260246000fd5b6000610ed982610bf5565b9150610ee483610bf5565b9250828202610ef281610bf5565b91508282048414831517610f0957610f08610e9f565b5b5092915050565b7f50726f6a6563742068617320616c7265616479206265656e207375626d69747460008201527f65642e0000000000000000000000000000000000000000000000000000000000602082015250565b6000610f6c602383610902565b9150610f7782610f10565b604082019050919050565b60006020820190508181036000830152610f9b81610f5f565b9050919050565b7f436f6465206c696e6b2063616e6e6f7420626520626c616e6b2e000000000000600082015250565b6000610fd8601a83610902565b9150610fe382610fa2565b602082019050919050565b6000602082019050818103600083015261100781610fcb565b9050919050565b60008190508160005260206000209050919050565b60006020601f8301049050919050565b600082821b905092915050565b6000600883026110707fffffffffffffffffffffffffffffffffffffffffffffffffffffffffffffffff82611033565b61107a8683611033565b95508019841693508086168417925050509392505050565b6000819050919050565b60006110b76110b26110ad84610bf5565b611092565b610bf5565b9050919050565b6000819050919050565b6110d18361109c565b6110e56110dd826110be565b848454611040565b825550505050565b600090565b6110fa6110ed565b6111058184846110c8565b505050565b5b818110156111295761111e6000826110f2565b60018101905061110b565b5050565b601f82111561116e5761113f8161100e565b61114884611023565b81016020851015611157578190505b61116b61116385611023565b83018261110a565b50505b505050565b600082821c905092915050565b600061119160001984600802611173565b1980831691505092915050565b60006111aa8383611180565b9150826002028217905092915050565b6111c3826108f7565b67ffffffffffffffff8111156111dc576111db610a23565b5b6111e68254610c58565b6111f182828561112d565b600060209050601f8311600181146112245760008415611212578287015190505b61121c858261119e565b865550611284565b601f1984166112328661100e565b60005b8281101561125a57848901518255600182019150602085019450602081019050611235565b868310156112775784890151611273601f891682611180565b8355505b6001600288020188555050505b50505050505056fea26469706673582212204921ca99ab391e62d99b7c3cf3c2f72db10d950efb2a42ff3a3c42a6ba65889364736f6c63430008180033",
  "linkReferences": {},
  "deployedLinkReferences": {}
}