{
  "_format": "hh-sol-artifact-1",
  "contractName": "Master",
  "sourceName": "contracts/master.sol",
  "abi": [
    {
      "inputs": [
        {
          "internalType": "address",
          "name": "_owner",
          "type": "address"
        },
        {
          "internalType": "address",
          "name": "_project",
          "type": "address"
        }
      ],
      "name": "addProject",
      "outputs": [],
      "stateMutability": "nonpayable",
      "type": "function"
    },
    {
      "inputs": [
        {
          "internalType": "uint256",
          "name": "",
          "type": "uint256"
        }
      ],
      "name": "allOwners",
      "outputs": [
        {
          "internalType": "address",
          "name": "",
          "type": "address"
        }
      ],
      "stateMutability": "view",
      "type": "function"
    },
    {
      "inputs": [
        {
          "internalType": "uint256",
          "name": "",
          "type": "uint256"
        }
      ],
      "name": "allProjects",
      "outputs": [
        {
          "internalType": "address",
          "name": "",
          "type": "address"
        }
      ],
      "stateMutability": "view",
      "type": "function"
    },
    {
      "inputs": [],
      "name": "getAllProjects",
      "outputs": [
        {
          "internalType": "address[]",
          "name": "",
          "type": "address[]"
        }
      ],
      "stateMutability": "view",
      "type": "function"
    },
    {
      "inputs": [
        {
          "internalType": "address",
          "name": "_owner",
          "type": "address"
        }
      ],
      "name": "getProjectsByOwner",
      "outputs": [
        {
          "internalType": "address[]",
          "name": "",
          "type": "address[]"
        }
      ],
      "stateMutability": "view",
      "type": "function"
    },
    {
      "inputs": [
        {
          "internalType": "address",
          "name": "",
          "type": "address"
        },
        {
          "internalType": "uint256",
          "name": "",
          "type": "uint256"
        }
      ],
      "name": "ownerToProjects",
      "outputs": [
        {
          "internalType": "address",
          "name": "",
          "type": "address"
        }
      ],
      "stateMutability": "view",
      "type": "function"
    }
  ],
  "bytecode": "0x608060405234801561001057600080fd5b50610887806100206000396000f3fe608060405234801561001057600080fd5b50600436106100615760003560e01c8062affc2f146100665780631516db091461008257806353b3194c146100b257806380d03829146100e25780639d9cc2fe14610100578063d92ff49414610130575b600080fd5b610080600480360381019061007b9190610608565b610160565b005b61009c6004803603810190610097919061067e565b6102d7565b6040516100a991906106ba565b60405180910390f35b6100cc60048036038101906100c7919061067e565b610316565b6040516100d991906106ba565b60405180910390f35b6100ea610355565b6040516100f79190610793565b60405180910390f35b61011a600480360381019061011591906107b5565b6103e3565b6040516101279190610793565b60405180910390f35b61014a600480360381019061014591906107e2565b6104af565b60405161015791906106ba565b60405180910390f35b6000808373ffffffffffffffffffffffffffffffffffffffff1673ffffffffffffffffffffffffffffffffffffffff168152602001908152602001600020819080600181540180825580915050600190039060005260206000200160009091909190916101000a81548173ffffffffffffffffffffffffffffffffffffffff021916908373ffffffffffffffffffffffffffffffffffffffff1602179055506002819080600181540180825580915050600190039060005260206000200160009091909190916101000a81548173ffffffffffffffffffffffffffffffffffffffff021916908373ffffffffffffffffffffffffffffffffffffffff16021790555061026b826104fd565b6102d3576001829080600181540180825580915050600190039060005260206000200160009091909190916101000a81548173ffffffffffffffffffffffffffffffffffffffff021916908373ffffffffffffffffffffffffffffffffffffffff1602179055505b5050565b600181815481106102e757600080fd5b906000526020600020016000915054906101000a900473ffffffffffffffffffffffffffffffffffffffff1681565b6002818154811061032657600080fd5b906000526020600020016000915054906101000a900473ffffffffffffffffffffffffffffffffffffffff1681565b606060028054806020026020016040519081016040528092919081815260200182805480156103d957602002820191906000526020600020905b8160009054906101000a900473ffffffffffffffffffffffffffffffffffffffff1673ffffffffffffffffffffffffffffffffffffffff168152602001906001019080831161038f575b5050505050905090565b60606000808373ffffffffffffffffffffffffffffffffffffffff1673ffffffffffffffffffffffffffffffffffffffff1681526020019081526020016000208054806020026020016040519081016040528092919081815260200182805480156104a357602002820191906000526020600020905b8160009054906101000a900473ffffffffffffffffffffffffffffffffffffffff1673ffffffffffffffffffffffffffffffffffffffff1681526020019060010190808311610459575b50505050509050919050565b600060205281600052604060002081815481106104cb57600080fd5b906000526020600020016000915091509054906101000a900473ffffffffffffffffffffffffffffffffffffffff1681565b600080600090505b60018054905081101561059a578273ffffffffffffffffffffffffffffffffffffffff166001828154811061053d5761053c610822565b5b9060005260206000200160009054906101000a900473ffffffffffffffffffffffffffffffffffffffff1673ffffffffffffffffffffffffffffffffffffffff160361058d5760019150506105a0565b8080600101915050610505565b50600090505b919050565b600080fd5b600073ffffffffffffffffffffffffffffffffffffffff82169050919050565b60006105d5826105aa565b9050919050565b6105e5816105ca565b81146105f057600080fd5b50565b600081359050610602816105dc565b92915050565b6000806040838503121561061f5761061e6105a5565b5b600061062d858286016105f3565b925050602061063e858286016105f3565b9150509250929050565b6000819050919050565b61065b81610648565b811461066657600080fd5b50565b60008135905061067881610652565b92915050565b600060208284031215610694576106936105a5565b5b60006106a284828501610669565b91505092915050565b6106b4816105ca565b82525050565b60006020820190506106cf60008301846106ab565b92915050565b600081519050919050565b600082825260208201905092915050565b6000819050602082019050919050565b61070a816105ca565b82525050565b600061071c8383610701565b60208301905092915050565b6000602082019050919050565b6000610740826106d5565b61074a81856106e0565b9350610755836106f1565b8060005b8381101561078657815161076d8882610710565b975061077883610728565b925050600181019050610759565b5085935050505092915050565b600060208201905081810360008301526107ad8184610735565b905092915050565b6000602082840312156107cb576107ca6105a5565b5b60006107d9848285016105f3565b91505092915050565b600080604083850312156107f9576107f86105a5565b5b6000610807858286016105f3565b925050602061081885828601610669565b9150509250929050565b7f4e487b7100000000000000000000000000000000000000000000000000000000600052603260045260246000fdfea2646970667358221220061d45b682edb6a38e0a5aaa71d15d2e3a549ad7c13aaca7c22bcf37a97528dc64736f6c63430008180033",
  "linkReferences": {},
  "deployedLinkReferences": {}
}