{
  "_format": "hh-sol-artifact-1",
  "contractName": "Master",
  "sourceName": "contracts/master.sol",
  "abi": [
    {
      "inputs": [
        {
          "internalType": "address",
          "name": "_disputeHandler",
          "type": "address"
        }
      ],
      "name": "addDisputeHandler",
      "outputs": [],
      "stateMutability": "nonpayable",
      "type": "function"
    },
    {
      "inputs": [
        {
          "internalType": "address",
          "name": "_owner",
          "type": "address"
        },
        {
          "internalType": "address",
          "name": "_project",
          "type": "address"
        }
      ],
      "name": "addProject",
      "outputs": [],
      "stateMutability": "nonpayable",
      "type": "function"
    },
    {
      "inputs": [
        {
          "internalType": "uint256",
          "name": "",
          "type": "uint256"
        }
      ],
      "name": "allOwners",
      "outputs": [
        {
          "internalType": "address",
          "name": "",
          "type": "address"
        }
      ],
      "stateMutability": "view",
      "type": "function"
    },
    {
      "inputs": [
        {
          "internalType": "uint256",
          "name": "",
          "type": "uint256"
        }
      ],
      "name": "allProjects",
      "outputs": [
        {
          "internalType": "address",
          "name": "",
          "type": "address"
        }
      ],
      "stateMutability": "view",
      "type": "function"
    },
    {
      "inputs": [
        {
          "internalType": "uint256",
          "name": "",
          "type": "uint256"
        }
      ],
      "name": "disputeHandlers",
      "outputs": [
        {
          "internalType": "address",
          "name": "",
          "type": "address"
        }
      ],
      "stateMutability": "view",
      "type": "function"
    },
    {
      "inputs": [],
      "name": "getAllProjects",
      "outputs": [
        {
          "internalType": "address[]",
          "name": "",
          "type": "address[]"
        }
      ],
      "stateMutability": "view",
      "type": "function"
    },
    {
      "inputs": [],
      "name": "getDisputeHandlers",
      "outputs": [
        {
          "internalType": "address[]",
          "name": "",
          "type": "address[]"
        }
      ],
      "stateMutability": "view",
      "type": "function"
    },
    {
      "inputs": [
        {
          "internalType": "address",
          "name": "_owner",
          "type": "address"
        }
      ],
      "name": "getProjectsByOwner",
      "outputs": [
        {
          "internalType": "address[]",
          "name": "",
          "type": "address[]"
        }
      ],
      "stateMutability": "view",
      "type": "function"
    },
    {
      "inputs": [
        {
          "internalType": "address",
          "name": "",
          "type": "address"
        },
        {
          "internalType": "uint256",
          "name": "",
          "type": "uint256"
        }
      ],
      "name": "ownerToProjects",
      "outputs": [
        {
          "internalType": "address",
          "name": "",
          "type": "address"
        }
      ],
      "stateMutability": "view",
      "type": "function"
    }
  ],
  "bytecode": "0x608060405234801561001057600080fd5b50610a55806100206000396000f3fe608060405234801561001057600080fd5b50600436106100925760003560e01c806353b3194c1161006657806353b3194c1461012f57806380d038291461015f5780639d9cc2fe1461017d578063d92ff494146101ad578063ded14dd1146101dd57610092565b8062affc2f146100975780631516db09146100b35780632eea7589146100e3578063505ac6a514610113575b600080fd5b6100b160048036038101906100ac91906107d6565b6101fb565b005b6100cd60048036038101906100c8919061084c565b610372565b6040516100da9190610888565b60405180910390f35b6100fd60048036038101906100f8919061084c565b6103b1565b60405161010a9190610888565b60405180910390f35b61012d600480360381019061012891906108a3565b6103f0565b005b6101496004803603810190610144919061084c565b610456565b6040516101569190610888565b60405180910390f35b610167610495565b604051610174919061098e565b60405180910390f35b610197600480360381019061019291906108a3565b610523565b6040516101a4919061098e565b60405180910390f35b6101c760048036038101906101c291906109b0565b6105ef565b6040516101d49190610888565b60405180910390f35b6101e561063d565b6040516101f2919061098e565b60405180910390f35b6000808373ffffffffffffffffffffffffffffffffffffffff1673ffffffffffffffffffffffffffffffffffffffff168152602001908152602001600020819080600181540180825580915050600190039060005260206000200160009091909190916101000a81548173ffffffffffffffffffffffffffffffffffffffff021916908373ffffffffffffffffffffffffffffffffffffffff1602179055506002819080600181540180825580915050600190039060005260206000200160009091909190916101000a81548173ffffffffffffffffffffffffffffffffffffffff021916908373ffffffffffffffffffffffffffffffffffffffff160217905550610306826106cb565b61036e576001829080600181540180825580915050600190039060005260206000200160009091909190916101000a81548173ffffffffffffffffffffffffffffffffffffffff021916908373ffffffffffffffffffffffffffffffffffffffff1602179055505b5050565b6001818154811061038257600080fd5b906000526020600020016000915054906101000a900473ffffffffffffffffffffffffffffffffffffffff1681565b600381815481106103c157600080fd5b906000526020600020016000915054906101000a900473ffffffffffffffffffffffffffffffffffffffff1681565b6003819080600181540180825580915050600190039060005260206000200160009091909190916101000a81548173ffffffffffffffffffffffffffffffffffffffff021916908373ffffffffffffffffffffffffffffffffffffffff16021790555050565b6002818154811061046657600080fd5b906000526020600020016000915054906101000a900473ffffffffffffffffffffffffffffffffffffffff1681565b6060600280548060200260200160405190810160405280929190818152602001828054801561051957602002820191906000526020600020905b8160009054906101000a900473ffffffffffffffffffffffffffffffffffffffff1673ffffffffffffffffffffffffffffffffffffffff16815260200190600101908083116104cf575b5050505050905090565b60606000808373ffffffffffffffffffffffffffffffffffffffff1673ffffffffffffffffffffffffffffffffffffffff1681526020019081526020016000208054806020026020016040519081016040528092919081815260200182805480156105e357602002820191906000526020600020905b8160009054906101000a900473ffffffffffffffffffffffffffffffffffffffff1673ffffffffffffffffffffffffffffffffffffffff1681526020019060010190808311610599575b50505050509050919050565b6000602052816000526040600020818154811061060b57600080fd5b906000526020600020016000915091509054906101000a900473ffffffffffffffffffffffffffffffffffffffff1681565b606060038054806020026020016040519081016040528092919081815260200182805480156106c157602002820191906000526020600020905b8160009054906101000a900473ffffffffffffffffffffffffffffffffffffffff1673ffffffffffffffffffffffffffffffffffffffff1681526020019060010190808311610677575b5050505050905090565b600080600090505b600180549050811015610768578273ffffffffffffffffffffffffffffffffffffffff166001828154811061070b5761070a6109f0565b5b9060005260206000200160009054906101000a900473ffffffffffffffffffffffffffffffffffffffff1673ffffffffffffffffffffffffffffffffffffffff160361075b57600191505061076e565b80806001019150506106d3565b50600090505b919050565b600080fd5b600073ffffffffffffffffffffffffffffffffffffffff82169050919050565b60006107a382610778565b9050919050565b6107b381610798565b81146107be57600080fd5b50565b6000813590506107d0816107aa565b92915050565b600080604083850312156107ed576107ec610773565b5b60006107fb858286016107c1565b925050602061080c858286016107c1565b9150509250929050565b6000819050919050565b61082981610816565b811461083457600080fd5b50565b60008135905061084681610820565b92915050565b60006020828403121561086257610861610773565b5b600061087084828501610837565b91505092915050565b61088281610798565b82525050565b600060208201905061089d6000830184610879565b92915050565b6000602082840312156108b9576108b8610773565b5b60006108c7848285016107c1565b91505092915050565b600081519050919050565b600082825260208201905092915050565b6000819050602082019050919050565b61090581610798565b82525050565b600061091783836108fc565b60208301905092915050565b6000602082019050919050565b600061093b826108d0565b61094581856108db565b9350610950836108ec565b8060005b83811015610981578151610968888261090b565b975061097383610923565b925050600181019050610954565b5085935050505092915050565b600060208201905081810360008301526109a88184610930565b905092915050565b600080604083850312156109c7576109c6610773565b5b60006109d5858286016107c1565b92505060206109e685828601610837565b9150509250929050565b7f4e487b7100000000000000000000000000000000000000000000000000000000600052603260045260246000fdfea26469706673582212204daea7bddb5990bb23cc210643b0a4d5f96954efa9aeb60ab82115fc54b1edf764736f6c63430008180033",
  "linkReferences": {},
  "deployedLinkReferences": {}
}