{
  "_format": "hh-sol-artifact-1",
  "contractName": "Master",
  "sourceName": "contracts/master.sol",
  "abi": [
    {
      "inputs": [
        {
          "internalType": "address",
          "name": "_owner",
          "type": "address"
        },
        {
          "internalType": "address",
          "name": "_project",
          "type": "address"
        }
      ],
      "name": "addProject",
      "outputs": [],
      "stateMutability": "nonpayable",
      "type": "function"
    },
    {
      "inputs": [
        {
          "internalType": "address",
          "name": "_owner",
          "type": "address"
        }
      ],
      "name": "getProjectsByOwner",
      "outputs": [
        {
          "internalType": "address[]",
          "name": "",
          "type": "address[]"
        }
      ],
      "stateMutability": "view",
      "type": "function"
    },
    {
      "inputs": [
        {
          "internalType": "address",
          "name": "",
          "type": "address"
        },
        {
          "internalType": "uint256",
          "name": "",
          "type": "uint256"
        }
      ],
      "name": "ownerToProjects",
      "outputs": [
        {
          "internalType": "address",
          "name": "",
          "type": "address"
        }
      ],
      "stateMutability": "view",
      "type": "function"
    }
  ],
  "bytecode": "0x608060405234801561001057600080fd5b50610504806100206000396000f3fe608060405234801561001057600080fd5b50600436106100405760003560e01c8062affc2f146100455780639d9cc2fe14610061578063d92ff49414610091575b600080fd5b61005f600480360381019061005a91906102e1565b6100c1565b005b61007b60048036038101906100769190610321565b610164565b604051610088919061040c565b60405180910390f35b6100ab60048036038101906100a69190610464565b610230565b6040516100b891906104b3565b60405180910390f35b6000808373ffffffffffffffffffffffffffffffffffffffff1673ffffffffffffffffffffffffffffffffffffffff168152602001908152602001600020819080600181540180825580915050600190039060005260206000200160009091909190916101000a81548173ffffffffffffffffffffffffffffffffffffffff021916908373ffffffffffffffffffffffffffffffffffffffff1602179055505050565b60606000808373ffffffffffffffffffffffffffffffffffffffff1673ffffffffffffffffffffffffffffffffffffffff16815260200190815260200160002080548060200260200160405190810160405280929190818152602001828054801561022457602002820191906000526020600020905b8160009054906101000a900473ffffffffffffffffffffffffffffffffffffffff1673ffffffffffffffffffffffffffffffffffffffff16815260200190600101908083116101da575b50505050509050919050565b6000602052816000526040600020818154811061024c57600080fd5b906000526020600020016000915091509054906101000a900473ffffffffffffffffffffffffffffffffffffffff1681565b600080fd5b600073ffffffffffffffffffffffffffffffffffffffff82169050919050565b60006102ae82610283565b9050919050565b6102be816102a3565b81146102c957600080fd5b50565b6000813590506102db816102b5565b92915050565b600080604083850312156102f8576102f761027e565b5b6000610306858286016102cc565b9250506020610317858286016102cc565b9150509250929050565b6000602082840312156103375761033661027e565b5b6000610345848285016102cc565b91505092915050565b600081519050919050565b600082825260208201905092915050565b6000819050602082019050919050565b610383816102a3565b82525050565b6000610395838361037a565b60208301905092915050565b6000602082019050919050565b60006103b98261034e565b6103c38185610359565b93506103ce8361036a565b8060005b838110156103ff5781516103e68882610389565b97506103f1836103a1565b9250506001810190506103d2565b5085935050505092915050565b6000602082019050818103600083015261042681846103ae565b905092915050565b6000819050919050565b6104418161042e565b811461044c57600080fd5b50565b60008135905061045e81610438565b92915050565b6000806040838503121561047b5761047a61027e565b5b6000610489858286016102cc565b925050602061049a8582860161044f565b9150509250929050565b6104ad816102a3565b82525050565b60006020820190506104c860008301846104a4565b9291505056fea26469706673582212204be71564758d0b88663b3b4341db22de619996482e15f29cc7b2d9ced1d0653464736f6c63430008180033",
  "linkReferences": {},
  "deployedLinkReferences": {}
}